:020000040800F2
:1000000088A80020DD020008CD54000883380008CD
:10001000AD460008B91A0008497900080000000040
:100020000000000000000000000000004502000881
:10003000FD2300080000000089020008316C000860
:10004000F7020008F7020008F7020008F7020008AC
:10005000F7020008F7020008BD2D00089D2F0008D8
:100060003D300008F70200089D300008F11F00082D
:10007000F7020008F7020008F7020008F70200087C
:10008000F7020008F7020008F7020008F70200086C
:1000900005790008F7020008F7020008C5300008DB
:1000A000F7020008F7020008F7020008B16C000828
:1000B0007D6E0008F7020008F7020008F70200084A
:1000C000F7020008F7020008F7020008F70200082C
:1000D000F702000899760008F7020008F702000806
:1000E000352E0008F7020008F7020008F7020008A2
:1000F000F7020008F7020008F7020008F7020008FC
:10010000F7020008F7020008F7020008F7020008EB
:10011000F7020008F7020008C96E0008F70200089D
:10012000F7020008F7020008F7020008F7020008CB
:1001300000F002F800F066F80AA090E8000C824493
:100140008344AAF10107DA4501D100F05BF8AFF270
:10015000090EBAE80F0013F0010F18BFFB1A43F0A5
:100160000103184710C5000030C500000A444FF0D5
:10017000000C10F8013B13F0070408BF10F8014B06
:100180001D1108BF10F8015B641E05D010F8016B4B
:10019000641E01F8016BF9D113F0080F1EBF10F8AF
:1001A000014BAD1C0C1B09D16D1E58BF01F801CBD2
:1001B000FAD505E014F8016B01F8016B6D1EF9D555
:1001C0009142D6D37047000000230024002500266A
:1001D000103A28BF78C1FBD8520728BF30C148BFAA
:1001E0000B607047642900F06D81732900F0D8839B
:1001F000002070471FB59DE8030000F017FB1FBDEE
:1002000010B510BD00F028FC1146FFF7F3FF08F011
:1002100049FD00F046FC03B4FFF7F2FF03BC07F012
:1002200093FE0000EFF30980704780F30988704760
:10023000EFF30880704780F30888704740BA704732
:10024000C0BA7047224B19680868B0E8F00F80F315
:100250000988BFF36F8F4FF0000080F311884EF0D4
:100260000D0E70470000000006480068006880F32B
:10027000088862B661B6BFF34F8FBFF36F8F00DFA0
:1002800000BF00BF08ED00E0EFF30980BFF36F8F00
:100290000F4B1A6820E9F00F106008B54FF05000BE
:1002A00080F31188BFF34F8FBFF36F8F0AF092FD79
:1002B0004FF0000080F31188BDE808401968086815
:1002C000B0E8F00F80F30988BFF36F8F704700BF6D
:1002D000A4000020EFF30580704700000948804724
:1002E00009480047FEE7FEE7FEE7FEE7FEE7FEE718
:1002F000FEE7FEE7FEE7FEE704480549054A064B30
:1003000070470000516C000831010008884000204F
:1003100088A8002088A4002088A40020704770B519
:10032000064600F067FA056806F10B0020F00704A6
:10033000B4429CBF002070BD2B466A68BAB11068F9
:10034000A04210D304F1080188423CBF50685860B5
:1003500007D35168101941601168091B016058608A
:100360001460101D70BD13465268002AE7D1214663
:10037000284600F047FA0028DED170BD70B504466B
:10038000051F00F037FA0068002C14BF446870BDE8
:10039000002C18BFAC423CBF20466468F8D301680B
:1003A0000A18AA4218BF456003D12A6805461144BD
:1003B000016028684119A1421CBF6C6070BD616872
:1003C000696021680844286070BDB2F120030AD535
:1003D000C2F1200320FA02F001FA03F321FA02F13C
:1003E00040EA0300704721FA03F04FF00001704724
:1003F0000FB4044910B503AA029800F0D5FA10BC56
:100400005DF814FB8C0000202DE9F0410E460446F7
:10041000002020622046E168884730B3252805D0B7
:10042000D4E901219047206A401CF2E7E1682046A8
:1004300000278847050018D0A5F14100192802D8E7
:1004400020354FF400673246294620462760FFF7E3
:10045000C9FE40B1012804D0F61D26F00706083673
:10046000D8E7361DD6E72846DAE7206ABDE8F081EE
:1004700070B50C460546012A05D02878800600D5BF
:10048000EA69002302E0012305E05B1C934202D2EB
:10049000E05C0028F9D1A869E618C01AA861286AAA
:1004A000184428622846AFF3008004E0D5E9012112
:1004B00014F8010B9047B442F8D32846AFF30080FC
:1004C00070BD00002DE9F041064600241068752932
:1004D000314616A510D0AFF30080002802DA404262
:1004E00013A507E031688A0701D512A502E0490784
:1004F00004D511A5012401E0AFF3008000210A22F8
:1005000006F1240709E0B0FBF2FCB0FBF2F302FBBA
:100510001C00303078541846491C0028F3D123467B
:100520002A463046BDE8F04100F0B6B900000000B0
:100530002D0000002B000000200000000EB5054635
:1005400014460E4613A000F04CFA284600F049FA73
:1005500016A000F046FA304600F043FA15A000F06D
:1005600040FA00218DF80B100A210DF10A008DF8D8
:100570000A1008E094FBF1F201FB124294FBF1F443
:10058000303200F8012D002CF4DC00F02AFA00F0E3
:100590001DFA00002A2A2A20617373657274696F3C
:1005A0006E206661696C65643A2000002C206669E3
:1005B0006C6520002C206C696E65200040EA010308
:1005C00010B59B070FD1042A0DD310C808C9121FFC
:1005D0009C42F8D020BA19BA884201D9012010BD36
:1005E0004FF0FF3010BD1AB1D30703D0521C07E003
:1005F000002010BD10F8013B11F8014B1B1B07D167
:1006000010F8013B11F8014B1B1B01D1921EF1D1D7
:10061000184610BD40EA0103024630B59B0710D1D1
:100620004FF0013400E008C208C91D1B9D4315EAC4
:10063000C41FF8D013F0FF0102F8011B0DD01B0AF4
:10064000F8E711F8013B002B02F8013B05D011F847
:10065000013B002B02F8013BF3D130BD032A40F2ED
:10066000308010F0030C00F0158011F8013BBCF154
:10067000020F624498BF11F801CB00F8013B38BF6C
:1006800011F8013BA2F1040298BF00F801CB38BF7A
:1006900000F8013B11F0030300F02580083AC0F098
:1006A000088051F8043B083A51F804CBA0E8081040
:1006B000F5E7121D5CBF51F8043B40F8043BAFF373
:1006C0000080D20724BF11F8013B11F801CB48BFCD
:1006D00011F8012B24BF00F8013B00F801CB48BF03
:1006E00000F8012B704710B5203AC0F00B80B1E83C
:1006F0001850203AA0E81850B1E81850A0E8185057
:10070000BFF4F5AF5FEA027C24BFB1E81850A0E85F
:10071000185044BF18C918C0BDE810405FEA827C79
:1007200024BF51F8043B40F8043B08BF7047D20790
:1007300028BF31F8023B48BF11F8012B28BF20F831
:10074000023B48BF00F8012B704702F0FF0343EA69
:10075000032242EA024200F002B84FF000020429EC
:10076000C0F0128010F0030C00F01B80CCF1040CE0
:10077000BCF1020F18BF00F8012BA8BF20F8022B14
:10078000A1EB0C0100F00DB85FEAC17C24BF00F8BA
:10079000012B00F8012B48BF00F8012B70474FF0E8
:1007A000000200B5134694469646203922BFA0E8C1
:1007B0000C50A0E80C50B1F12001BFF4F7AF0907CD
:1007C00028BFA0E80C5048BF0CC05DF804EB8900BE
:1007D00028BF40F8042B08BF704748BF20F8022B01
:1007E00011F0804F18BF00F8012B70477047704719
:1007F00070477047004870472C4000207047704792
:100800007047704738B504460A4600206946AFF382
:100810000080002808BF38BD02460099204600F03D
:10082000EFF8012038BD012000F00FB9F8B5AFF3A3
:100830000080054600200C46102000BF0646A8197F
:10084000A0420DD9324669460020AFF30080070070
:1008500008BF00F0FAF80098A04218BF0546C41976
:10086000FFF7C8FF05600746F01D20F00700461996
:10087000284600F00AF8B44208BFF8BDA21B314672
:100880003868BDE8F84000F0BBB800210160C0E95D
:1008900001107047102070472DE9F0470D4699462A
:1008A0009246044600F124080168880604D5E069F0
:1008B00021F01001216000E00120A84201DD471B6A
:1008C00000E00027A1697A1902EB0900081AA0616B
:1008D0002078C00602D42046AFF30080002608E04E
:1008E000D4E901211AF806009047206A401C761CC2
:1008F00020624E45F4DB2078C0060AD52046AFF3CF
:10090000008006E0D4E9012130209047206A401C95
:100910002062381EA7F10107F4DC07E0D4E90121C9
:1009200018F805009047206A401C2062281EA5F197
:100930000105F3DC2046AFF300802078000602D5E5
:100940000220BDE8F0870120FBE7000001694A1C96
:1009500002610878704700B58FB0CDE90131002100
:10096000059105497944CDE9031011466846FFF722
:100970004BFD0FB000BD0000E5FFFFFF10B5436960
:1009800013B1AFF3008001E0FFF772FD012010BD4D
:10099000127800F124010A7000224A700122EDE76A
:1009A00011684FF0FF32E9E7074B70B50D467B4405
:1009B000FFF7D1FF0446284600F03CF810B14FF095
:1009C000FF3070BD204670BD2B80000010B50020A8
:1009D00000F034F8FFF714FCBDE81040012007F0E8
:1009E000B3BA10B5044602E0641C07F0AFFA2078F1
:1009F0000028F9D110BD00000048704724400020B5
:100A0000034640688C46002818BF88423CBF034616
:100A10004068F8D318681844884207D00CF10300E6
:100A200020F00700001D411A521A0146081D0A60F5
:100A3000FFF7A4BC007B00F08000704710B500F009
:100A40003FF8BDE8104000F035B810B500F050F8A0
:100A5000BDE8104000F02EB87546FFF7CDFFAE465A
:100A600005006946534620F00700854618B020B5BA
:100A7000FFF742FCBDE820404FF000064FF00007B2
:100A80004FF000084FF0000B21F00701AC46ACE836
:100A9000C009ACE8C009ACE8C009ACE8C0098D46A3
:100AA000704710B50446AFF300802046BDE8104003
:100AB000FFF7B1BB002801D007F046BA704700002D
:100AC00010B5002102A000F03BF8012010BD00008D
:100AD000534947414252543A2041626E6F726D61F0
:100AE0006C207465726D696E6174696F6E000000D0
:100AF00010B5012805D0002103A000F021F8012045
:100B000010BD09A1F8E7000053494752544D454D27
:100B10003A204F7574206F662068656170206D659E
:100B20006D6F7279000000003A2048656170206D99
:100B3000656D6F727920636F727275707465640091
:100B400070B505460C460A2000E06D1C07F0FEF962
:100B500035B128780028F8D102E0641C07F0F6F9D6
:100B600014B120780028F8D1BDE870400A2007F0C1
:100B7000EDB9000000B587B00121042004F040FF6A
:100B800041F28830ADF81400194800681949B0FBEB
:100B9000F1F0401E80B2ADF810000020ADF8160054
:100BA000ADF8120004A9144806F074FC6020ADF8FA
:100BB00000000120ADF802004FF47A70ADF8060095
:100BC0000220ADF8080069460B4806F00DFC002134
:100BD000094806F0C9F9084806F0F0FA0821064865
:100BE00006F040FC0021044806F0A6FC07B000BD5A
:100BF00054000020A08601000008004070B54FF4AA
:100C00008060FFF78CFB044614B930A0FFF7F0FBBF
:100C10004FF4806239492046FFF720FD3848B0F88C
:100C20008E10A0F8A010B0F89010A0F8A210B0F8A4
:100C30009210A0F8A410B0F89410A0F8A61090F8A4
:100C4000A00020702E48B0F8A000000A60702C4868
:100C500090F8A200A0702A48B0F8A200000AE07044
:100C6000274890F8A40020712548B0F8A400000A95
:100C70006071234890F8A600A0712148B0F8A60042
:100C8000000AE07102F086FB04260025352002F000
:100C90003BFB1A4802F03EFB0646042E0FD100BF74
:100CA0000AE06159154AA81802F086FB064600BF03
:100CB000042EFDD1281D85B2B5F57F7FF1DD02F050
:100CC00071FB2046FFF75AFB70BD00006D656D6F2C
:100CD00072793A206661696C20746F206372656175
:100CE0007465207468652073656374696F6E20662F
:100CF0006F7220646174610D0A00000000800308B7
:100D00002C01002021B1826842F00102826003E0E0
:100D1000826822F001028260704721B1826842F449
:100D20008072826003E0826822F480728260704781
:100D300010B504461248844208D10121401504F040
:100D40008FFE0021601504F08BFE17E00D488442F1
:100D500008D10121001504F083FE0021201504F0C4
:100D60007FFE0BE00848844208D10121C80304F04B
:100D700077FE00214FF4004004F072FE10BD000029
:100D80000024014000280140003C014021B182685C
:100D900042F48012826003E0826822F48012826052
:100DA0007047014600208A6802F004020AB101205F
:100DB00000E000207047014600208A6802F0080227
:100DC0000AB1012000E000207047000030B5024663
:100DD0000020002350680F4C20400D790C6844EA35
:100DE00005242043506090680B4C2040D1E9025408
:100DF0002C434D7944EA450420439060D06A20F4A6
:100E000070000C7C641EE4B2234340EA0350D062BD
:100E100030BD0000FFFEF0FFFDF7F1FFF0B5044626
:100E20000D4600200021092D11DDE068A5F10A061C
:100E300006EB4607072606FA07F18843A5F10A06DE
:100E400006EB460603FA06F10843E0600CE0206971
:100E500005EB4507072606FA07F1884305EB45062B
:100E600003FA06F108432061072A0FDA606B561E69
:100E700006EB86071F2606FA07F18843561E06EB87
:100E8000860605FA06F10843606322E00D2A0FDAB0
:100E9000206BD61F06EB86071F2606FA07F188434C
:100EA000D61F06EB860605FA06F10843206310E01C
:100EB000E06AA2F10D0606EB86071F2606FA07F187
:100EC0008843A2F10D0606EB860605FA06F10843F3
:100ED000E062F0BD816841F008018160704781687F
:100EE00041F004018160704710B5194890F858012D
:100EF00028B1312148F2010005F04BFD10BD002161
:100F0000144806F0BEFA0021124806F0BCFA00218F
:100F1000104806F0BAFA00210E4806F0B8FA00218F
:100F20000D4806F0AEFA00210B4806F0ACFA4FF47B
:100F30007A7007F0C7FC0121054880F8A81000234B
:100F4000064A1946312000F02DFC00BFD6E700000C
:100F50002C010020000C004000040040850000200F
:100F600000B5AFB00020ADF8B800ADF8BA008DF80C
:100F70000000ADF8B800ADF8BA00BDF8B800401CEC
:100F8000B52808DAAB21BDF8B820501C80B2ADF806
:100F9000B8000DF80210BDF8B800ADF8BA00BDF801
:100FA000B800401CB52808DA5621BDF8B820501CFE
:100FB00080B2ADF8B8000DF80210BDF8B800ADF879
:100FC000BA00BDF8B800401CB52808DA0321BDF806
:100FD000B820501C80B2ADF8B8000DF80210BDF872
:100FE000B800ADF8BA00BDF8B800401CB52808DA62
:100FF0000121BDF8B820501C80B2ADF8B8000DF842
:101000000210BDF8B800ADF8BA00BDF8B800401C39
:10101000B52808DA0021BDF8B820501C80B2ADF820
:10102000B8000DF80210BDF8B800ADF8BA00BDF870
:10103000B800401CB52808DA0121BDF8B820501CC2
:1010400080B2ADF8B8000DF80210BDF8B800ADF8E8
:10105000BA00BDF8B800401CB5280FDABDF8B800DA
:10106000801E81B20DF1020000F08FFFBDF8B820A4
:10107000511C89B2ADF8B8100DF80200BDF8B800E7
:10108000ADF8BA00684605F037FD2FB000BD00008E
:101090002DE9F04105460E4614461F463A4890F8A1
:1010A0005801032806D02A2148F2010005F071FCFE
:1010B000BDE8F081012D3DD1012E19D10120324929
:1010C00081F8D800012C02D0022C0AD104E01121B1
:1010D0002D4880F8D9100AE012212B4880F8D91049
:1010E00005E0394648F2030005F053FC00BF41E03B
:1010F000022E19D10220244981F8D800012C02D0F7
:10110000022C0AD104E011211F4880F8D9100AE00E
:1011100012211D4880F8D91005E0394648F2030035
:1011200005F037FC00BF25E0394648F2030005F022
:1011300030FCBDE7022D17D10320134981F8D800F8
:10114000012C04D11121104880F8D91012E0022C92
:1011500004D112210C4880F8D9100BE0394648F22E
:10116000030005F016FCA3E7394648F2030005F03A
:1011700010FC9DE7384600F01FF902210348006883
:1011800009F09CFE00BF93E72C010020080000201E
:1011900010B50446074890F8580128B1122148F2CA
:1011A000010005F0F6FB10BD0021024880F8561141
:1011B00000BFF8E72C01002038B50446234890F81A
:1011C0005801042805D0312148F2010005F0E1FB67
:1011D00038BD2078617840EA0120ADF80000A078A1
:1011E000E17840EA0120ADF80200BDF80000B0F55A
:1011F000967F04DBBDF80200B0F5967F05DA312159
:1012000048F2070005F0C5FBE2E7BDF80000B0F5C5
:101210002F7F04DCBDF80200B0F52F7F05DD312102
:1012200048F2070005F0B5FBD2E7BDF8000007491A
:10123000A1F85A04BDF80200A1F85C040023044A96
:101240001946312000F0AEFA00BFC1E72C010020A2
:101250008500002070B50546144890F85801022812
:1012600005D02C2148F2010005F093FB70BD2C78CD
:10127000012C03D1022C01D1032C05D02C2148F2E2
:10128000030005F086FBF1E7084880F8AA4015F84E
:10129000014B80F8AC402C2000F08EF8102104485F
:1012A000006809F00BFE00BFE0E700002C01002001
:1012B0000800002070B504460D461C4890F85801FF
:1012C000012805D02A2148F2010005F062FB70BD1B
:1012D000012C04D10121154880F8F01017E0022CF0
:1012E00004D10221114880F8F01010E0032C04D141
:1012F00003210E4880F8F01009E000210B4880F827
:10130000F010294648F2030005F043FBDFE72846CA
:1013100000F052F80121054880F8B9100421044872
:10132000006809F0CBFD00BFD1E700002C010020D0
:101330000800002070B504460D461D4890F858017D
:10134000012805D0292148F2010005F022FB70BDDB
:10135000012C04D11120164981F864001AE0022CF6
:1013600004D11220124981F8640013E0032C04D147
:1013700011200F4981F878000CE0042C04D11220D0
:101380000B4981F8780005E0294648F2030005F092
:1013900000FBDCE7284600F00FF80121044880F844
:1013A000B7100448006809F089FD00BFCFE70000CE
:1013B0002C0100200800002010B5B0B00446002029
:1013C000ADF8BC00ADF8BE008DF80400ADF8BC006F
:1013D000ADF8BE00BDF8BC00401CB52808DAAB2152
:1013E000BDF8BC20501C80B2ADF8BC0001A88154EF
:1013F000BDF8BC00ADF8BE00BDF8BC00401CB5286F
:1014000008DA5621BDF8BC20501C80B2ADF8BC00F3
:1014100001A88154BDF8BC00ADF8BE00BDF8BC0009
:10142000401CB52808DA0321BDF8BC20501C80B24E
:10143000ADF8BC0001A88154BDF8BC00ADF8BE00F9
:10144000BDF8BC00401CB52808DA0121BDF8BC205D
:10145000501C80B2ADF8BC0001A88154BDF8BC009E
:10146000ADF8BE00BDF8BC00401CB52808DA00216C
:10147000BDF8BC20501C80B2ADF8BC0001A881545E
:10148000BDF8BC00ADF8BE00BDF8BC00401CB528DE
:1014900007DABDF8BC10481C80B2ADF8BC0001A84A
:1014A0004454BDF8BC00ADF8BE00BDF8BC00401C03
:1014B000B5280FDABDF8BC00801E81B20DF1060020
:1014C00000F063FDBDF8BC20511C89B2ADF8BC1022
:1014D00001A98854BDF8BC00ADF8BE0001A805F014
:1014E0000BFB30B010BD000010B50446064890F864
:1014F000580128B1012148F2010005F04AFA10BD57
:10150000FFF72EFD00BFFAE72C01002070B535482B
:1015100090F8580128B1032148F2010005F039FA8A
:1015200070BD4FF48051304802F09EF904464FF4EC
:1015300080612D4802F098F905462946204607F0BB
:1015400087FE2A4908704FF48051294802F08CF92F
:1015500004464FF40061244802F086F90546294606
:10156000204607F075FE214948700221204802F00C
:101570007BF904464FF400511D4802F075F9054609
:101580002946204607F064FE184988704FF4007120
:10159000184802F069F904464FF48071154802F0CA
:1015A00063F905462946204607F052FE0F49C870E8
:1015B0000421114802F058F904464FF480610D48A7
:1015C00002F052F905462946204607F041FE074938
:1015D000087105230A460021032000F0E3F800BF4C
:1015E0009EE700002C010020001001408500002033
:1015F000000C0140000801400014014070B5B0B07B
:1016000006465C4890F8580130B1022148F20100CA
:1016100005F0BFF930B070BD0020ADF8BC00ADF8EA
:10162000BE008DF80400ADF8BC00ADF8BE00BDF8FA
:10163000BC00401CB52808DAAB21BDF8BC20501C0A
:1016400080B2ADF8BC0001A88154BDF8BC00ADF873
:10165000BE00BDF8BC00401CB52808DA5621BDF814
:10166000BC20501C80B2ADF8BC0001A88154BDF86C
:10167000BC00ADF8BE00BDF8BC00401CB52808DABF
:101680002121BDF8BC20501C80B2ADF8BC0001A8DF
:101690008154BDF8BC00ADF8BE00BDF8BC00401CD4
:1016A000B52808DA0121BDF8BC20501C80B2ADF885
:1016B000BC0001A88154BDF8BC00ADF8BE00BDF867
:1016C000BC00401CB52808DA1E21BDF8BC20501C07
:1016D00080B2ADF8BC0001A88154BDF8BC00ADF8E3
:1016E000BE00BDF8BC00401CB52808DA0121BDF8D9
:1016F000BC20501C80B2ADF8BC0001A88154BDF8DC
:10170000BC00ADF8BE001B4D002413E0BDF8BC00CA
:10171000401CB52808DA295DBDF8BC20501C80B2F9
:10172000ADF8BC0001A88154BDF8BC00ADF8BE0006
:10173000601CC4B21E2CE9D3BDF8BC00401CB52807
:101740000FDABDF8BC00801E81B20DF1060000F07A
:101750001CFCBDF8BC20511C89B2ADF8BC1001A91D
:101760008854BDF8BC00ADF8BE0001A805F0C4F96E
:1017700000BF4FE72C01002010B50446074890F841
:10178000580128B1102148F2010005F002F910BDFE
:101790000021034805F0E8FB00BFF8E72C0100201A
:1017A000000C00402DE9F041B0B007460D469046D0
:1017B0001C460020ADF8BC00ADF8BE008DF804005A
:1017C000ADF8BC00ADF8BE00BDF8BC00401CB528AB
:1017D00008DAAB21BDF8BC20501C80B2ADF8BC00CB
:1017E00001A88154BDF8BC00ADF8BE00BDF8BC0036
:1017F000401CB52808DA5621BDF8BC20501C80B228
:10180000ADF8BC0001A88154BDF8BC00ADF8BE0025
:101810009DB1BDF8BC00401CB52809DA201DC1B23D
:10182000BDF8BC20501C80B2ADF8BC0001A88154AA
:10183000BDF8BC00ADF8BE0012E0BDF8BC00401C15
:10184000B52809DAE01CC1B2BDF8BC20501C80B23A
:10185000ADF8BC0001A88154BDF8BC00ADF8BE00D5
:10186000BDF8BC00401CB52808DA0221BDF8BC2038
:10187000501C80B2ADF8BC0001A88154BDF8BC007A
:10188000ADF8BE00002D13DDBDF8BC00401CB5282E
:1018900009DA601CC1B2BDF8BC20501C80B2ADF8A2
:1018A000BC0001A88154BDF8BC00ADF8BE0010E03A
:1018B000BDF8BC00401CB52807DABDF8BC10481CB8
:1018C00080B2ADF8BC0001A84454BDF8BC00ADF82E
:1018D000BE00BDF8BC00401CB52807DABDF8BC103E
:1018E000481C80B2ADF8BC0001A84754BDF8BC004C
:1018F000ADF8BE00002D10DDBDF8BC00401CB528C1
:1019000007DABDF8BC10481C80B2ADF8BC0001A8D5
:101910004554BDF8BC00ADF8BE00C4B1002614E0CB
:10192000BDF8BC00401CB52809DA18F80610BDF84F
:10193000BC20501C80B2ADF8BC0001A88154BDF899
:10194000BC00ADF8BE00701CC6B2A642E8DBBDF814
:10195000BC00401CB5280FDABDF8BC00801E81B267
:101960000DF1060000F011FBBDF8BC20511C89B23E
:10197000ADF8BC1001A98854BDF8BC00ADF8BE009C
:1019800001A805F0B9F830B0BDE8F08110B5044603
:10199000074890F8580128B1112148F2010004F0DD
:1019A000F8FF10BD0121024880F8561100BFF8E78A
:1019B0002C0100202DE9FC4704464FF000093C486B
:1019C00090F85801072806D0152148F2010004F0CC
:1019D000E0FFBDE8FC87B4F8B800401CB4F8BA10CA
:1019E000884207DC34F8B81F2088401C24F8B80966
:1019F000665C00E00026002515E0B4F8B800401C45
:101A0000B4F8BA10884209DC34F8B81F2088401CAA
:101A100024F8B809605C0DF8050002E000200DF81C
:101A20000500681CC5B2224890F85801A842E4DCC1
:101A3000684600F0CBFA28B9152148F2010004F0FD
:101A4000A8FFC6E7012E0DD101F0ECFC342001F017
:101A50005BFC184801F05EFC0121164801F0ACFC6B
:101A600001F0A0FC13480068012818D1FFF778FAAC
:101A70000F48D0F8208000BF0D49086A0522414672
:101A800000F090FA0028F7D14FF00060D0F80490F1
:101A90004F4601460868FEF7CEFBB84705E0152122
:101AA00048F2020004F075FF93E700BF91E70000E1
:101AB0002C0100200048000800BFFEE730B58BB0C5
:101AC000002400250121480603F09AFF012104208B
:101AD00003F0B6FF4FF40060ADF8080048208DF821
:101AE0000B0003208DF80A0002A9444801F0E8FD2C
:101AF0004FF48050ADF8080018208DF80B0002A9B3
:101B00003E4801F0DDFD3E4800F084F808A800F0F2
:101B10002CFA0121480603F073FF00208DF82600FF
:101B20008DF827008DF8280001208DF8290000206D
:101B30008DF82A0001208DF82B0000208DF822005E
:101B40008DF8230005208DF8240004208DF8250051
:101B50000620ADF8200008A9294800F004F94FF448
:101B600008654FF4FF4400208DF81A008DF81B0023
:101B700001208DF81C00680BADF810004FF6FF70C7
:101B800000EAC500001DADF81200600BADF81400AE
:101B90004FF6FF7000EAC400001DADF816000020EB
:101BA000ADF8180001208DF81D0004A800F04EF8D3
:101BB00001220221124800F0CDF814208DF80C000B
:101BC00001208DF80D0000208DF80E0001208DF809
:101BD0000F0003A803F07CFC00200A490A4B4FF4D5
:101BE0008062CDE900100949094806F025FD082169
:101BF000074806F077FD0BB030BD0000000801403B
:101C00000064004071A000084991000840060020CF
:101C10001C06002010B504460B48844209D101215E
:101C2000480603F0FDFE00214FF0007003F0F8FEBF
:101C300008E00121880603F0F3FE00214FF08060E8
:101C400003F0EEFE10BD00000064004010B500215E
:101C5000837A012202FA03F13D4A126842F001023E
:101C60003B4B1A603A4A1C3212688A43384B1C3389
:101C70001A60027BCAB9364A0C3212688A43344B66
:101C80000C331A604288C38842EA0343304A403228
:101C9000847A42F834300288838842EA03432C4A2B
:101CA0004032847A02EBC4025360027B012A19D1CC
:101CB000274A0C3212680A43254B0C331A604288BB
:101CC000038842EA0343224A4032847A42F834309D
:101CD000C288838842EA03431D4A4032847A02EB79
:101CE000C4025360C27A3AB9194A121D12688A4373
:101CF000174B1B1D1A6006E0154A121D12680A4395
:101D0000134B1B1D1A60028932B9114A1432126832
:101D10008A430F4B14331A600289012A06D10C4AF8
:101D2000143212680A430A4B14331A60427B012AA8
:101D300006D1074A1C3212680A43054B1C331A604D
:101D4000034A126822F00102014B1A6010BD000024
:101D5000006600401AB143690B43436102E04369E6
:101D60008B434361704730B502460020002314685E
:101D700024F002041460146844F00104146000E0CC
:101D80005B1C546804F001041CB94FF6FF74A342B5
:101D9000F6D1546804F001040CB900206CE08C7991
:101DA000012C04D1146844F08004146003E014682A
:101DB00024F080041460CC79012C04D1146844F020
:101DC0004004146003E0146824F0400414600C7AAA
:101DD000012C04D1146844F02004146003E014685A
:101DE00024F0200414604C7A012C04D1146844F0CF
:101DF0001004146003E0146824F0100414608C7A5A
:101E0000012C04D1146844F00804146003E0146841
:101E100024F008041460CC7A012C04D1146844F036
:101E20000404146003E0146824F0040414608C7843
:101E3000A407CD7844EA05640D7944EA05444D7958
:101E400044EA05540D886D1E2C43D461146824F0B7
:101E500001041460002300E05B1C546804F00104DA
:101E60001CB14FF6FF74A342F6D1546804F001048C
:101E70000CB1002000E0012030BD10B500F5D87392
:101E800003EB01131B6803F004031372137A53B9B5
:101E900000F5D87303EB01131B6840F2FF7404EAEA
:101EA0005353136009E000F5D87303EB01131B686B
:101EB0006FF0604404EAD303536000F5D87303EB7A
:101EC00001131B6803F00203537200F5D87303EB90
:101ED00001135B6803F00F03937200F5D87303EBF3
:101EE00001135B681B0AD37400F5D87303EB01136D
:101EF0009B68D37200F5D87303EB01139B681C0A2F
:101F0000147300F5D87303EB01139B681C0C547316
:101F100000F5D87303EB01139B681B0E937300F558
:101F2000D87303EB0113DB68D37300F5D87303EBAD
:101F30000113DB681C0A147400F5D87303EB01135A
:101F4000DB681C0C547400F5D87303EB0113DB68D9
:101F50001B0E937421B9C36843F02003C36003E0F0
:101F6000036943F02003036110BD00218171C17139
:101F7000017241728172C1728170C170032101715D
:101F80000221417101210180704710B502460B46C4
:101F90000021002003E0545C60404C1CE1B29942F7
:101FA000F9DB10BD03468B4206D3581A904201D28A
:101FB000012070470020FCE7C1F1FF301844904237
:101FC00001D20120F5E70020F3E7000002460021DE
:101FD00008E00648405C535C984201D000207047FE
:101FE000481CC1B20629F4DB0120F8E78502002075
:101FF00038B5022000F04EF950B3022000F086F808
:10200000022000F075F80021124804F0ADFF002115
:102010001148FEF777FE0021104800F085F80521F1
:102020000E4800F074F901200D4981F8240069463A
:102030000C48006809F048FC0446012C08D10098BF
:1020400030B1200708490860BFF34F8FBFF36F8F8F
:1020500038BD000000080040002401400800024094
:102060002C0100201000002004ED00E000B58DB030
:102070000121084603F0B4FC1A4800F061F81A4840
:1020800002901A480390002004900520059000203B
:102090000690802007904000089080000990002062
:1020A0000A904FF480500B9000200C9002A90D482C
:1020B00000F00FF9012202210A4800F001F90B207B
:1020C0008DF804000A208DF8050001208DF8070026
:1020D00001A803F0FDF90121024800F025F80DB038
:1020E00000BD0000080002404C240140B80100205F
:1020F00000F0805111B10349086001E002494860D5
:1021000070470000040402400000024000F08051CB
:1021100011B10349086001E00249486070470000BE
:10212000040402400000024021B1026842F00102B2
:10213000026004E002684FF6FE731A4002607047C6
:1021400001684FF6FE72114001600021016041609C
:102150008160C1604B49884208D14A4908394968C1
:1021600041F00F01474A083A51608AE0454914316D
:10217000884208D143490839496841F0F001414A91
:10218000083A51607DE03F492831884208D13D49F5
:102190000839496841F470613A4A083A516070E080
:1021A00038493C31884208D136490839496841F4F8
:1021B0007041344A083A516063E0324950318842F4
:1021C00008D130490839496841F470212D4A083A4C
:1021D000516056E02B496431884208D129490839B9
:1021E000496841F47001274A083A516049E025499D
:1021F0007831884208D123490839496841F0706133
:10220000204A083A51603CE01F49884206D1011F2C
:10221000096841F00F01021F116032E01A491431C0
:10222000884208D11849091F096841F0F001164A8F
:10223000121F116025E014492831884208D1124943
:10224000091F096841F470610F4A121F116018E0FC
:102250000D493C31884208D10B49091F096841F4F6
:102260007041094A121F11600BE007495031884242
:1022700007D10549091F096841F47021024A121F5C
:102280001160704708000240080402400146486897
:1022900080B2704701460020002201F0805313B144
:1022A000054B1A6801E0054B1A6802EA01030BB1FD
:1022B000012000E0002070470004024000000240BE
:1022C0001AB103680B43036002E003688B430360A9
:1022D000704710B50022026847F6F0739A430C6A03
:1022E0008B6823430C6923434C6923438C69234344
:1022F000CC6923434C6A23438C6A23431A4302600C
:10230000CB6843600B6883604B68C36010BD41605D
:102310007047000010B500244FF4004006F0BCFBED
:1023200004E0601CC4B2012008F092F84FF40041B0
:102330000F4801F099FA08B1C82CF2DBC82C01DB78
:10234000012010BD002404E0601CC4B20A2008F083
:102350007FF84FF40041064801F086FA08B9182CBE
:10236000F2DB182C01DB0120EBE70020E9E700009D
:102370000008014008B50121042003F061FB0121A0
:10238000084603F05DFB01210D4801F025FA4FF4EA
:102390000040ADF8000010208DF8030003208DF8F8
:1023A00002006946074801F08BF94FF400410548E7
:1023B00001F065FA00F008F8FFF7ACFF08BD000077
:1023C000000230000008014010B54FF4004006F054
:1023D00025FF4FF40041084801F04FFA40F2EE208B
:1023E00008F036F84FF40041034801F048FA0F2096
:1023F00008F02EF810BD000000080140704770B5CD
:1024000004460D4601222946204600F049FA0222E0
:102410002946204600F044FA70BD000008B5E1A04E
:1024200000680090E04890F8D80003287DD0002193
:10243000DD484185C1870120DB4981F8B200DB48D6
:102440000078012802D1DAA0FDF7D2FFD64A92F82F
:10245000D91092F8D800012200F08EFAD24890F8F4
:10246000D800012840D1D048408D40B9CE48B0F8BE
:10247000660020B9CC4890F8B20000287CD1032136
:10248000C94880F8B510B0F8C200401C81B2C648F7
:10249000A0F8C210C5480078012806D1C248B0F89B
:1024A0006620418DCF48FDF7A3FFBF4890F8D900C3
:1024B000122802D1012001F057FCBB4890F82A00F5
:1024C0008DF80000B84890F866008DF80200B64814
:1024D00090F8B51004236A462A20FFF763F900211B
:1024E000B14880F8B5105BE1AF4890F8D8000228F9
:1024F00042D1AD48C08F38B9AB48B0F87A0018B9AE
:10250000A94890F8B200B0BB0321A74880F8B510E5
:10251000B0F8C800401C81B2A348A0F8C810A34876
:102520000078012808D1A04800E071E0B0F87A20D6
:10253000C18FAD48FDF75CFF9B4890F8D900122889
:1025400002D1022001F010FC974890F83E008DF86F
:102550000100954890F87A008DF80300924890F8B1
:10256000B51004236A462A20FFF71CF900218E4883
:1025700080F8B51014E1FFE78B4890F8D8000128E7
:1025800004D11520884981F8280008E0864890F891
:10259000D800022803D11520834981F83C0000218E
:1025A000814880F81A11C0F8E4106421A0F8DC100A
:1025B000C821A0F8DE10142180F8E010012180F875
:1025C000E11080F8B3100021A0F8FC1077480078E3
:1025D000012802D185A0FDF70BFF7348016AC0F8FE
:1025E000141142F6E061A0F81011034693F8D820C8
:1025F000B3F9FC1093F8D90000F052F9012202213E
:102600008A4804F0D2FD0121884804F0ADFCC7E0FF
:102610000021654880F81A114185C18790F8D910CA
:102620000222012000F0A8F95F4890F8D910022298
:10263000104600F0A1F95C48B0F87A0040B95A4859
:10264000C08F28B95848408D10B95748C08FC8B3BB
:102650000221554880F8B510B0F8C800401C81B27E
:102660005148A0F8C810B0F8C200401C81B24E48D2
:10267000A0F8C2104D480078012802D16C48FDF73F
:10268000B7FE494890F82A008DF80000464890F8B7
:1026900066008DF80200444890F83E008DF8010075
:1026A000414890F87A008DF803003F4890F8B51043
:1026B00004236A462A20FFF775F800213A4880F87B
:1026C000B5106DE0FFE7384890F81A0102282CD1C8
:1026D0000121354880F8B51090F82A008DF80000E7
:1026E000314890F866008DF802002F4890F83E00BF
:1026F0008DF801002C4890F87A008DF803002A48E4
:1027000090F8B51004236A462A20FFF74BF8002101
:10271000254880F8B51080F8B310244800780128C7
:1027200002D144A0FDF764FE3AE001201E4981F881
:10273000B20000211C48C0F8E4104FF49671A0F8D4
:10274000DC10C821A0F8DE10142180F8E0100A2166
:1027500080F8E1100021A0F8FC101448007801284E
:1027600002D141A0FDF744FE0F48016AC0F81411E0
:1027700042F6E061A0F81011012180F8B310024682
:10278000B2F9FC1092F8D900FFF739FE01220221BC
:10279000264804F00AFD0121244804F0E5FB00BFAF
:1027A00000BF08BDFFFFFFFF2C010020000000203C
:1027B0004E6F74653A20737461727420746F206375
:1027C0006865636B2074686520696E697469616C03
:1027D00020737461747573206F6620646F6F7273F9
:1027E000210D0A00F0C4000844C500085761726E4C
:1027F000696E673A2053696E676C656D6F6465201A
:10280000746865204C6F776572646F6F72207374A3
:102810006172747320746F206F70656E206F722008
:10282000636C6F7365210D0A00000000002C0140ED
:10283000E0C50008537563636573733A20626F7473
:102840006820646F6F7273206172652061742074F8
:10285000686520746172676574656420706F736960
:1028600074696F6E0D0A00005761726E696E673A87
:10287000204475616C6D6F64652074686520646FB9
:102880006F722073746172747320746F206F70653F
:102890006E206F7220636C6F7365210D0A0000005B
:1028A00070B504460D461646B5F5617F02DD4FF45E
:1028B000617502E00A2D00DA0A25012E02D0022EEF
:1028C00054D129E02A4890F82800152823D1112C4A
:1028D00008D1A9B2274804F0D4FD0021254804F00E
:1028E000D2FD18E0122C08D10021224804F0C9FDC5
:1028F000A9B2204804F0C7FD0DE0142C0BD1142020
:102900001B4981F8280000211A4804F0BAFD002173
:10291000184804F0B8FD29E0154890F83C00152847
:1029200023D1112C08D1A9B2124804F0AEFD002128
:10293000104804F0ACFD18E0122C08D100210D481D
:1029400004F0A3FDA9B20B4804F0A1FD0DE0142C86
:102950000BD10021074804F098FD0021054804F040
:1029600096FD1420024981F83C0000BF00BF70BDF5
:102970002C010020000C00402DE9F04704460E46D3
:102980001546FF27B8464FF00009204601F06CFCC1
:10299000012C0ED102214F4800F066FF074661036B
:1029A0004C4800F061FF804615204B4981F8280013
:1029B0000FE0022C0DD12102484800F055FF0746D8
:1029C000E101464800F050FF80461520424981F859
:1029D0003C00112E11D1012F0FD14FF00109012C14
:1029E00004D101213C4880F8BF101AE0022C18D114
:1029F0000121394880F8C01013E0122E11D1B8F12E
:102A0000010F0ED14FF00109012C04D102213248EF
:102A100080F8BF1005E0022C03D102212E4880F877
:102A2000C010B9F1010F3AD1012D07D100202A4978
:102A300081F8B2000021284880F8B310012C15D18C
:102A40001420254981F82800022D07D1084690F866
:102A50001A01401CC1B2204880F81A1120480078A1
:102A600001281AD11FA0FDF7C3FC16E0022C14D1D7
:102A70001420194981F83C00022D07D1084690F82E
:102A80001A01401CC1B2144880F81A111448007889
:102A9000012802D11EA0FDF7ABFCBDE8F087B8F11C
:102AA000000F15D1A7B90C48B0F8660030B1012C61
:102AB00004D13146204600F041F809E00648B0F85C
:102AC0007A0028B1022C03D13146204600F036F8B6
:102AD00000BFE2E7000C01402C010020000801408B
:102AE000000000204E4F54453A74686520757070A0
:102AF0006572646F6F7220697320616C72656164C6
:102B000079206F6E20706F736974696F6E0D0A00A3
:102B10004E4F54453A746865206C6F776572646FE8
:102B20006F7220697320616C7265616479206F6EC9
:102B300020706F736974696F6E0D0A002DE9F84398
:102B400080460F464FF00009112F02D14FF01209B5
:102B500001E04FF01109B8F1010F03D0B8F1020FF5
:102B60007BD17FE08448016A016341F2883181852D
:102B7000C82181861520804981F828000846B0F9CF
:102B8000341042464846FFF78BFE002466E0B9F158
:102B9000120F06D14FF40051784800F065FE04464C
:102BA00004E00221754800F05FFE0446724890F888
:102BB000240001281FD100206F4981F8240000F073
:102BC0009DFC01216E48FFF7AFFA01216D48FEF729
:102BD00099F86D48007801280DD16748B0F89E003B
:102BE00000906548B0F89C30B0F89A20B0F8981082
:102BF00066A0FDF7FDFB6048016A006B0D1A002D11
:102C000001DAC5F1FF355C48B0F92C00A84212DCAE
:102C10008CB90321584841850021664804F031FCF5
:102C20000021644804F02FFC1420534981F8280047
:102C30004FF0FF3614E0012C10D100214E484185A1
:102C40005C4804F01EFC00215A4804F01CFC1420CF
:102C5000494981F82800002602E089E0002C96D03E
:102C600000BF85E04448016A416441F28831A0F820
:102C70004010C821A0F84810112F00D112271520AC
:102C80003D4981F83C000846B0F9481042463846B4
:102C9000FFF706FE002467E0B9F1120F06D14FF4EA
:102CA0008071454800F0E0FD044605E04FF40071F6
:102CB000414800F0D9FD04462F4890F8240001282F
:102CC0001FD100202C4981F8240000F017FC0121BD
:102CD0002B48FFF729FA01212A48FEF713F82A4862
:102CE000007801280DD12448B0F89E0000902248B9
:102CF000B0F89C30B0F89A20B0F8981023A0FDF7F7
:102D000077FB1D48016A406C0D1A002D01DAC5F1F0
:102D1000FF351948B0F94000A84212DC8CB90321F4
:102D20001548C1871420144981F83C00002121482E
:102D300004F0ABFB00211F4804F0A9FB4FF0FF3665
:102D400014E0012C10D100210B48C18714200A493E
:102D500081F83C000021174804F097FB002115483A
:102D600004F095FB002601E0002C95D000BF00BFC9
:102D700000BF3046BDE8F8832C010020000C014064
:102D80000800024000240140000000204348313A7E
:102D90002025640909094348323A202564090909B4
:102DA0004348333A2025640909094348343A202529
:102DB000640D0A00000C00400008014010B501201D
:102DC00000F04CFA01281ED100F042FA012000F078
:102DD00039FA01210C4800F047FDA0B90B4890F8E2
:102DE000B30001280FD1012200211420FFF758FD64
:102DF0000121064880F8C41005480078032802D154
:102E000004A0FDF7F5FA10BD000C01402C010020D4
:102E1000000000205570706572646F6F72204F4320
:102E20005020697320747269676765727265640DFA
:102E30000A00000010B54FF4804000F00FFA01289E
:102E40002ED1800300F004FA4FF4804000F0FAF92C
:102E50004FF48041414800F007FD08BB404890F81E
:102E60006400E8B13E4890F87800C8B93C4890F852
:102E70007300401CC1B23A4880F8731090F8730098
:102E800002280DDB0021364880F87310012180F8FC
:102E9000D310B0F8CC00401C81B23148A0F8CC105F
:102EA0004FF4005000F0DAF901282BD1400300F074
:102EB000CFF94FF4005000F0C5F94FF40051274806
:102EC00000F0D2FCF0B1012200211420FFF7E8FC51
:102ED000234890F8B30001280DD1214890F8D9007B
:102EE000122808D11E4890F81A01401CC1B21C4893
:102EF00080F81A1106E01B480078012802D11AA0B8
:102F0000FDF776FA4FF4806000F0A8F9012824D18B
:102F1000800200F097F94FF4806000F099F91048B2
:102F200090F85000152818D14FF48061194800F02E
:102F30009BFC90B100214FF0804004F015F8002276
:102F40000421154804F031F9054890F85E00112875
:102F500003D10121024880F81B1110BD000C014073
:102F60002C01002000000020425547203A207570B7
:102F7000706572646F6F722D636C6F73656420731C
:102F8000656E736F722070726F626C656D210D0AD1
:102F90000000000000080140002C014010B5022094
:102FA00000F05CF9012829D1022000F051F902203B
:102FB00000F048F90221124800F056FCF0B101225D
:102FC00000211420FFF76CFC0E4890F8B300012894
:102FD0000DD10C4890F8D900112808D1094890F873
:102FE0001A01401CC1B2074880F81A1106E00648D1
:102FF0000078012802D105A0FDF7FAF910BD000004
:10300000000C01402C010020000000205761726E6E
:10301000696E67203A207570706572646F6F722DEB
:103020006F70656E65642073656E736F7220707269
:103030006F626C656D210D0A0000000010B5042060
:1030400000F00CF9012822D1042000F0FBF8042044
:1030500000F0FEF80E4890F85000152817D1042112
:103060000C4800F001FC90B100214FF0804003F0CB
:103070007BFF00220421084804F097F8044890F8E8
:103080005E00122803D10121014880F81B1110BDF8
:103090002C01002000140140002C014010B510202C
:1030A00000F0DCF8012809D1102000F0D1F8102040
:1030B00000F0C8F81021024800F0D6FB10BD000057
:1030C0000008014010B54FF4007000F0C7F8012867
:1030D0004FD1400200F0BCF84FF4007000F0B2F89D
:1030E0004FF400713C4800F0BFFBE8B93B4890F852
:1030F0005F00401CC1B2394880F85F1090F85F0053
:10310000022811DB0021132000F0C4FD0121334807
:1031100080F8D210B0F8D000401C81B22F48A0F83F
:10312000D010002180F85F104FF400712C4800F09F
:103130009BFBF0B1022200211420FFF7B1FB2748CE
:1031400090F8B30001280DD1244890F8D900112837
:1031500008D1224890F81A01401CC1B21F4880F8DB
:103160001A1106E01F480078012802D11EA0FDF7C1
:103170003FF94FF4807000F071F801282BD1000264
:1031800000F060F84FF4807000F062F84FF4807146
:10319000134800F069FBF0B1022200211420FFF770
:1031A0007FFB0E4890F8B30001280DD10B4890F832
:1031B000D900122808D1094890F81A01401CC1B260
:1031C000064880F81A1106E006480078012802D166
:1031D00011A0FDF70DF910BD001001402C010020D9
:1031E00000080140000000205761726E696E672080
:1031F0003A206C6F776572646F6F722D6F70656EB9
:1032000065642073656E736F722070726F626C6597
:103210006D210D0A00000000425547203A207570CC
:10322000706572646F6F722D636C6F736564207369
:10323000656E736F722070726F626C656D210D0A1E
:1032400000000000014908607047000014040140BC
:103250000149086070470000140401400146002045
:10326000034A12680A400AB1012000E000207047BA
:1032700014040140002123498279002A3AD00A46E9
:10328000126803689A430B461A600A1D12680368A5
:103290009A430B1D1A60027911440A6803681A43A5
:1032A0000A60184A0832126803689A43154B0833BB
:1032B0001A601A1D126803689A43124B0C331A6085
:1032C0004279102A0ED11A1F126803681A430D4B57
:1032D00008331A601A1D126803681A43094B0C332D
:1032E0001A600DE00749427911440A6803681A43DD
:1032F0000A6005E0027911440A6803689A430A608B
:1033000070470000000401400149C8607047000098
:103310000020024030B5044604254FF4302000F070
:103320008DF80546042D17D10C48006940F00200C5
:103330000A49086108464461006940F0400008619C
:103340004FF4302000F07AF805460448006941F651
:10335000FD71084001490861284630BD0020024047
:1033600004200B49C96801F0010109B101200EE0F8
:103370000749C96801F0040109B1022007E00449C6
:10338000C96801F0100109B1032000E00420704772
:103390000020024010B500F045F83420FFF7B4FFDC
:1033A00010BD00000348006940F080000149086139
:1033B000704700000020024078B506460C46042500
:1033C00000200090E80200F039F80546042D24D1D1
:1033D0001348006940F00100114908613480E80297
:1033E00000F02CF80546042D10D1B01C0090200CE4
:1033F00000990880E80200F021F8054608480069B5
:1034000041F6FE7108400649086106E0044800697B
:1034100041F6FE71084002490861284678BD000067
:103420000020024002480349486003484860704752
:103430002301674500200240AB89EFCD00B502466D
:103440000423FFF78DFF034603E0FFF789FF0346E0
:10345000521E012B01D1002AF7D102B905231846CB
:1034600000BD000010B5044617480078022805D1B9
:10347000164890F8D91016A0FCF7BAFF002113489F
:1034800080F81A1190F8C40001280BD115200F49BB
:1034900081F8280091F8D90001224FF4AF71FFF7AD
:1034A000FFF90FE0094890F8C60001280AD115205D
:1034B000064981F83C0091F8D90002224FF4AF711F
:1034C000FFF7EEF910BD0000000000202C010020E5
:1034D0005761726E696E673A207468652074696D11
:1034E00065722069732074726967676572726564BA
:1034F00020646972203D2025640D0A002DE9F04703
:103500005C48B0F88C004FF47A71484340F6FF7184
:1035100090FBF1FA504608F050FE06464FF0663236
:10352000554B08F061FE04460022544B08F05CFE47
:10353000804608F015FE81B24E48A0F89610B0F80B
:103540008E10B0F8A000814204DC00214948A0F8A8
:103550008E1009E04748B0F88E10B0F8A000081AA5
:1035600081B24448A0F88E104248B0F89010B0F8EC
:10357000A200814204DC00213E48A0F8901009E03E
:103580003C48B0F89010B0F8A200081A81B239484F
:10359000A0F890103748B0F89210B0F8A40081421B
:1035A00004DC00213348A0F8921009E03148B0F85B
:1035B0009210B0F8A400081A81B22E48A0F8921018
:1035C0002C48B0F89410B0F8A600814204DC002129
:1035D0002848A0F8941009E02648B0F89410B0F8F4
:1035E000A600081A81B22348A0F894102148B0F828
:1035F0008E0000EB400101EBC0004FF4C87148435E
:1036000040F6FF7190FBF1F081B21A48A0F89810D3
:10361000B0F8900000EB400101EBC0004FF4C8711E
:10362000484340F6FF7190FBF1F081B21148A0F8D9
:103630009A10B0F8920000EB400101EBC0004FF48B
:10364000C871484340F6FF7190FBF1F081B2094820
:10365000A0F89C10B0F894004FF4867148434FF4E2
:103660007A7190FBF1F081B20248A0F89E10BDE89B
:10367000F08700002C01002066660A40000026400A
:1036800030B500228B071C0F0F2303FA04F20B4BFB
:103690008C1053F824309343084C8D1044F8253097
:1036A00023468C1053F824308C07240F00FA04F4BE
:1036B0002343024C8D1044F8253030BD08000140F2
:1036C0002DE9F041024600250026002000230024B9
:1036D000002791F803C00CF00F0591F803C00CF01F
:1036E000100CBCF1000F03D091F802C04CEA0505A4
:1036F00091F800C0BCF1000F31D0146800202BE01D
:103700004FF0010C0CFA00F3B1F800C00CEA03060C
:103710009E4220D183004FF00F0C0CFA03F7BC43FC
:1037200005FA03FC4CEA040491F803C0BCF1280F2D
:1037300006D14FF0010C0CFA00FCC2F814C00AE0EC
:1037400091F803C0BCF1480F05D14FF0010C0CFA01
:1037500000FCC2F810C0401C0828D1D31460B1F896
:1037600000C0BCF1FF0F34DD546800202EE000F1F2
:10377000080C4FF0010808FA0CF3B1F800C00CEA8D
:1037800003069E4221D183004FF00F0C0CFA03F781
:10379000BC4305FA03FC4CEA040491F803C0BCF1F5
:1037A000280F05D100F1080C08FA0CF8C2F81480B3
:1037B00091F803C0BCF1480F07D100F1080C4FF09D
:1037C000010808FA0CF8C2F81080401C0828CED373
:1037D0005460BDE8F0810000F0B50A4600230024E3
:1037E0000021002500F00046B6F1004F02D11D4E29
:1037F000F16901E01B4E7168C0F3034583B200F428
:103800004016B6F5401F08D121F07061154E76685C
:1038100026F07066134F7E6012E000F48016B6F555
:10382000801F06D1032606FA05F4A14341F070611A
:1038300006E0460D360103FA06F6B14341F0706129
:1038400022B1460D360103FA06F6314300F0004678
:10385000B6F1004F02D1034EF16101E0014E7160FB
:10386000F0BD0000000001400246002093680B40BC
:103870000BB1012000E000207047416170470161F9
:10388000704700BFFEE7000030B589B0002000217E
:1038900058A41CCC06AD1CC559A393E83400DB68C2
:1038A000CDE903450593029259A30CCBCDE9002342
:1038B00000BF39E00023C0EB401202EB8014564AEF
:1038C00002EB840282F87A31C0EB401202EB8014E2
:1038D000514A02F82430002122E00023C0EB4012BC
:1038E00002EB80144C4A02EB8402921CC1EB0114DF
:1038F00004EB411402EB8402A2F8B830C0EB401292
:1039000002EB8014444A02EB8402921CC1EB0114C6
:1039100004EB411402EB8402A2F8BA304A1CD1B283
:103920000229DADB421CD0B20228C3DB00223B4B67
:1039300083F857211A62002006E01DF80030364A4D
:10394000D21F1354421CD0B20628F6DB002005E03B
:1039500006AA125C314B1A54421CD0B20A28F7DB7B
:1039600001222E4B9A720022DA7201221A7302226D
:103970005A73002006E002AA135C284A0E32135440
:10398000421CD0B21028F6DB254A10785178FF2867
:1039900001D0FF2904D10123204A82F8A83027E072
:1039A0001F4A12881E4B5B7842EA032293B21B4ADD
:1039B000A2F8A0301A4A5288194BDB7842EA032257
:1039C00093B2164AA2F8A230154A9288144B5B793A
:1039D00042EA032293B2114AA2F8A430104AD288D4
:1039E0000F4BDB7942EA032293B20C4AA2F8A630CD
:1039F00009B030BD52554E33574149534845000038
:103A00006162636465666768696A3132333435368A
:103A100055504441544500008C0200202C010020E8
:103A20000080030810B50024864890F8F0000128B3
:103A300004D002284CD0032824D124E00421824859
:103A4000FFF712FF012801D101241BE04FF4806130
:103A50007E48FFF709FF01280AD11221794880F832
:103A60005E107B49C0F8E8100321A0F8FE1009E0C1
:103A70001221744880F85E107649C0F8E8100321DE
:103A8000A0F8FE1071E04FF480617048FFF7ECFE83
:103A9000012801D101241AE004216B48FFF7E4FE5C
:103AA00001280AD11121674880F85E106849C0F8E2
:103AB000E8100321A0F8FE1009E01121614880F808
:103AC0005E106449C0F8E8100321A0F8FE104CE035
:103AD00004215D48FFF7C8FE01280AD11121594889
:103AE00080F85E105B49C0F8E8100321A0F8FE10D2
:103AF0003AE04FF480615548FFF7B6FE01280AD13D
:103B00001221504880F85E105249C0F8E810032195
:103B1000A0F8FE1028E04B48B0F8520008B9012484
:103B200022E0484890F8F800012804D0022818D074
:103B3000032818D10AE01121424880F85E10454957
:103B4000C0F8E8100321A0F8FE100CE012213D4857
:103B500080F85E103F49C0F8E8100321A0F8FE107D
:103B600001E0012400BF00BF00BF00BF012C0ED147
:103B70001420344981F8500000213248A0F8521036
:103B8000012180F8B61034A0FCF732FC10BD2D489E
:103B900090F85E00112803D100203B49086002E044
:103BA000012039490860C8212648A0F80011B0F862
:103BB0000001401E642148432249B1F8FE1090FBE9
:103BC000F1F032490860084600686421B0FBF1F06A
:103BD0002E4908600846008880B20A2190FBF1F067
:103BE00081B21848A0F81E11016A81650021C0F851
:103BF000EC10C0F8F410A0F804111520114981F858
:103C0000500044F620610F48A0F854100021A0F89D
:103C1000041180F81B110A21A0F85C10016A81656B
:103C20000146B1F85C1088B200F06CF801218807F9
:103C300003F09AF901220421154803F0B6FA00BFF7
:103C4000A4E700002C0100200014014000080140FE
:103C500020A1070090D003005761726E696E673A29
:103C6000204C6966746572206973206F6E207468D9
:103C70006520746172676574656420706F73697420
:103C8000696F6E0D0A000000A881214278000020B3
:103C9000002C014070B504460D46184890F85000BD
:103CA000152829D1112C08D1A9B2800703F0EDFB0A
:103CB0000021A00703F0EBFB1EE0122C08D100212D
:103CC000600703F0E2FBA9B2600703F0E0FB13E03A
:103CD000142C08D10021200703F0D9FB1420074938
:103CE00081F8500008E0132C06D100200449086038
:103CF0001320024981F8500070BD00002C01002003
:103D0000BC81214270B505464FF47A7068430621A4
:103D100090FBF1F40948B0FBF4F464204443A6B2EC
:103D200006EBD67041104FF0804003F0B0FBA1B21B
:103D30004FF0804003F0A3FB70BD000040420F0035
:103D400008B50121082001F07BFE4FF48040ADF85A
:103D5000000004208DF8030069460248FFF7B0FC1C
:103D600008BD0000000C014010B50446012C7DD1B7
:103D70000103DC48FFF778FD012877D00021DA48FD
:103D8000A0F866100020D94908600120D849C1F880
:103D90008401D548016AC166FA21122000F032FC84
:103DA0000121D44803F0E0F86AE0D3480078012804
:103DB00009D1CD4890F8B30028B9CB48B0F89E108F
:103DC000CEA0FCF715FBC848016AC06E81420BD239
:103DD000C548006A401EC449B1F86C10401A01B2CF
:103DE000C148A0F8681008E0BF48016AB0F86C004C
:103DF000081A01B2BC48A0F86810BB48B0F96800C6
:103E0000B0F5FA6F17DB4FF48061B648FFF72CFD71
:103E1000012804D10321B448A0F8661003E0022170
:103E2000B148A0F86610B4480078012802D1BEA0BD
:103E3000FCF7DEFA2BE0AC4890F8D30001281FD144
:103E40000A21A948A0F866100021AA4803F019FB2E
:103E50000021A84803F017FBA748007801280ED1DD
:103E6000A14890F8B30050B9BD4800E060E0FCF70D
:103E7000BFFA9D48B0F86610BAA0FCF7B9FA06E0A0
:103E80004FF480519748FFF7EFFC01288DD100BF18
:103E900044F6206004F0F2FC4FF4FA71142000F0B4
:103EA000B1FB95480078012809D18F4890F8B300FC
:103EB00028B98D48B0F96810B5A0FCF799FA4FF40D
:103EC00080618848FFF7D0FC012804D10221864890
:103ED00080F8BC100FE04FF480518248FFF7C4FC1B
:103EE000012804D10121804880F8BC1003E003219F
:103EF0007D4880F8BC107C48B0F86600002816D0D9
:103F00007948B0F8CC00401C81B27748A0F8CC10BA
:103F10007948007801280AD1734890F8B300002846
:103F2000F9D17148B0F86610A8A0FCF761FAD8E0A2
:103F3000022C73D1E102B448FFF796FC01286DD042
:103F400000216948A0F87A1000206849091D08601E
:103F500001206749C1F88001FA21122000F052FBCC
:103F60000121644803F000F85F48016AC0F880103E
:103F700055E05D48016AD0F8800081420BD25A4872
:103F8000006A401E5849B1F88010401A01B25648E4
:103F9000A0F87C1008E05448016AB0F88000081AC4
:103FA00001B25148A0F87C104F48B0F97C00B0F540
:103FB000FA6F10DD4FF400614A48FFF755FC012805
:103FC00004D103214848A0F87A1003E002214648B2
:103FD000A0F87A102AE0444890F8D30001281ED1B6
:103FE0000A214148A0F866100021424803F049FA2E
:103FF0000021404803F047FA3F48007801280CD1DF
:10400000394890F8B30040B95548FCF7F1F9364803
:10401000B0F8661053A0FCF7EBF907E048E04FF466
:1040200080517948FFF720FC0128A2D100BF502120
:10403000142000F0E7FA4FF480517348FFF714FCA6
:10404000012804D10121284880F8BD100FE04FF469
:1040500000612448FFF708FC012804D1022122480E
:1040600080F8BD1003E003211F4880F8BD101E48F2
:10407000B0F87A0040B31C48B0F8CC00401C81B2C4
:104080001948A0F8CC101C480078012829D11648FE
:1040900090F8B300C0B91448B0F87A00032803D1EF
:1040A0005AA0FCF7A5F91CE066A0FCF7A1F918E0FE
:1040B000012C0AD121030B48FFF7D6FB012804D1BC
:1040C0000121094880F8BC100BE0022C09D1E10263
:1040D0004D48FFF7C9FB012803D10121024880F8B0
:1040E000BD1010BD001001402C01002080012242B3
:1040F000000022420004004000000020437572725C
:10410000656E743A206C6F636B6572206368616ED4
:104110006E656C2063757272656E74203D20256437
:10412000206D410D0A000000204572726F723A2026
:104130006F6E65206F66207468652075707065729B
:104140006C6F636B65722073776974636820686154
:10415000732070726F62656C6D2E200D0A00000076
:10416000A8C400084572726F723A20636F7272655C
:1041700073706F6E64696E67206572726F72206310
:104180006F6465206973202564210D0A000000001A
:1041900054696D6520496E74657276616C3A20745D
:1041A0006865206475726174696F6E206F66206C3B
:1041B0006F636B6572206F7065726174696F6E20DA
:1041C0006973202564206D730D0A00004572726FBB
:1041D000723A205468652075707065726C6F636BFD
:1041E0006572206661696C7320746F206C61746302
:1041F0006820696E2C206572726F72636F6465202F
:1042000069732025640D0A00000C01404572726F2D
:10421000723A20746865206C6F7765726C6F636B9F
:104220006572206661696C7320746F206C6F636BBC
:1042300020696E746F2074686520646F6F720D0A58
:10424000000000004572726F723A20746865206C3D
:104250006F7765726C6F636B65722074696D656FE3
:1042600075740D0A0000000070B504460025012C8D
:104270007DD10021A348A0F866100020A249086063
:104280000120A249C1F884019621112000F0BAF959
:1042900000219C48A0F86810016AC16649E099486D
:1042A000016AC06E81420BD29648006A401E954951
:1042B000B1F86C10401A01B29248A0F8681008E0FA
:1042C0009048016AB0F86C00081A01B28D48A0F855
:1042D00068108C48B0F96800B0F5FA6F04DB022171
:1042E0008848A0F866102BE0864890F8D300012893
:1042F0001FD10A218348A0F86610002180F8D3104E
:10430000834803F0BEF80021814803F0BCF88148DF
:10431000007801280CD17B4890F8B30040B97E4862
:10432000FCF766F87748B0F866107CA0FCF760F8F8
:1043300006E04FF480618448FFF796FA0128AED179
:1043400000BF5021142000F05DF972480078012868
:1043500009D16C4890F8B30028B96A48B0F96810E0
:104360007AA0FCF745F84FF48061774800E035E02B
:10437000FFF77AFA012804D10221624880F8BC10C4
:104380000FE04FF480517048FFF76EFA012804D116
:1043900001215C4880F8BC1003E00321594880F8F3
:1043A000BC105848B0F86600002816D05548B0F840
:1043B000CC00401C81B25348A0F8CC10554800787E
:1043C00001280AD14F4890F8B3000028F9D14D4890
:1043D000B0F866106BA0FCF70BF892E0022CFCD151
:1043E00000214848A0F87A1000204749091D0860BC
:1043F00001204649C1F880019621112000F002F900
:104400000121434802F0B0FD39E06D1C6C48854243
:1044100010D34FF480516B48FFF726FA012804D1DE
:1044200001213848A0F87A1003E002213548A0F8AD
:104430007A102BE0334890F8D30001281FD10A21CD
:104440003048A0F87A10002180F8D310304803F0EB
:1044500018F800212E4803F016F82E48007801289D
:104460000CD1284890F8B30040B92B48FBF7C0FFA7
:104470002448B0F8661029A0FBF7BAFF06E04FF415
:1044800000613148FFF7F0F90128BED100BF50218B
:10449000142000F0B7F84FF480514A48FFF7E4F9D0
:1044A000012804D10121174880F8BD100FE04FF416
:1044B00000612548FFF7D8F9012804D102211148ED
:1044C00080F8BD1003E003210E4880F8BD100D48B0
:1044D000B0F87A00A8B10B48B0F8CC00401C81B20B
:1044E0000848A0F8CC100B480078012809D10548ED
:1044F00090F8B30028B90348B0F87A1032A0FBF75F
:1045000077FF70BD2C010020800122420000224272
:104510000004004000000020A8C400084572726F2B
:10452000723A20636F72726573706F6E64696E6742
:10453000206572726F7220636F6465206973202535
:1045400064210D0A000000000010014054696D65EF
:1045500020496E74657276616C3A2064757261747C
:10456000696F6E206F66206C6F636B6572206F7071
:1045700065726174696F6E206973202564206D73A4
:104580000D0A00004572726F723A205468652075FA
:10459000707065726C6F636B6572206661696C73B5
:1045A00020746F2072656C656173652C2065727272
:1045B0006F72636F64652069732025640D0A0000C3
:1045C00000441500000C01404572726F723A20548D
:1045D0006865206C6F7765726C6F636B65722066BF
:1045E00061696C7320746F2072656C656173652CF2
:1045F000206572726F72636F646520697320256431
:104600000D0A000070B504460D46112C08D129464C
:10461000154802F036FF0021134802F034FF21E074
:10462000122C08D10021104802F02BFF29460E4819
:1046300002F029FF16E0132C08D100210A4802F0ED
:1046400020FF0021084802F01EFF0BE0142C09D1C6
:104650004FF4FA71044802F014FF4FF4FA71024863
:1046600002F011FF70BD00000004004008B50121F8
:10467000102001F0E5F90720ADF8000010208DF8BA
:10468000030003208DF8020069460548FFF718F87B
:104690000020044908600449C1F8800108BD0000F9
:1046A00000100140840122420000224200BFFEE7C8
:1046B0002DE9F843814890F8C40001287CD17F4857
:1046C00090F8C500401CC1B27C4880F8C51090F835
:1046D000D900112801D1122405E0784890F8D900BA
:1046E000122800D11124C82500220221744802F0AA
:1046F0005CFD1520714981F82800012229462046D9
:10470000FEF7CEF86D4890F8C500022804DC40F2B0
:10471000DC5004F0D7F811E0112C07D100BF0221C2
:104720006848FFF7A1F80028F9D007E000BF4FF470
:1047300000516448FFF798F80028F8D001220021C2
:104740001420FEF7ADF85D4890F8C50003282ADA7A
:104750005A4890F8C500022802DB42F2107601E0C8
:1047600041F288360A200023324604210090564840
:10477000006807F0A3FC074607F0C6F980460A2048
:1047800000234246012100904F48006807F096FC44
:1047900007464FB94D480078022804D100E00BE0ED
:1047A0004BA0FBF725FE87E0484800780228FAD1A5
:1047B00050A0FBF71DFE7FE0404890F8C60001289E
:1047C0007AD13E4890F8C700401CC1B23B4880F8FF
:1047D000C71090F8D900112801D1122405E03748FC
:1047E00090F8D900122800D11124C82500220221F6
:1047F000334802F0DAFC1520304981F83C000222EF
:1048000029462046FEF74CF82C4890F8C7000228AD
:1048100004DC40F2DC5004F055F812E0112C08D111
:1048200000BF4FF400713D48FFF71EF80028F8D094
:1048300007E000BF4FF480713848FFF715F80028F3
:10484000F8D0022200211420FEF72AF81B4890F825
:10485000C700032830DA194890F8C700022802DBA5
:1048600042F2107601E041F288360A2000233246F7
:10487000042100901448006807F020FC074607F068
:1048800043F980460A2000234246012100900E4849
:10489000006807F013FC07463FB90C48007802286F
:1048A0000AD10BA0FBF7A4FD06E008480078022817
:1048B00002D110A0FBF79CFDBDE8F8832C0100207D
:1048C000002C0140000C01401400002000000020DA
:1048D0005761726E696E673A206661696C20746F09
:1048E000207374617274207468652074696D6572D8
:1048F0000D0A00005761726E696E673A2073756326
:104900006365656420746F207374617274207468C9
:10491000652074696D65720D0A0000000008014091
:1049200010B5FE4890F8B300012875D1FB4890F807
:10493000B5000028F9D1F94890F8C400002833D117
:10494000F648B0F89810008F81422DDDF4480078C9
:10495000401CF349087008460078022824DB012235
:1049600000211420FDF79CFF0121EC4880F8C410C1
:10497000032180F81A110A21A0F810110020E8493B
:1049800008700021E54880F8C510016AC0F81411CC
:104990000821E448006806F091FAE348007802280C
:1049A00002D1E2A0FBF724FDDC4890F8C600002805
:1049B00036D1DA48B0F89C10B0F84C0081422FDDB7
:1049C000E8480078401CE74908700846007802284B
:1049D00026DB022200211420FDF762FF0121CF48CF
:1049E00080F8C610032180F81A110020DD490870F4
:1049F0000021CA4880F8C710016AC0F814110121CB
:104A0000A0F810110821C748006806F057FAC648F8
:104A10000078022804D100E08CE0D3A0FBF7E8FC8A
:104A2000BE4BB3F81021D3F81411186AFDF7BAFA87
:104A3000002870D1B94890F81A0148B1B74890F8E9
:104A4000C600012804D0B54890F8C400012871D1EF
:104A5000B24890F8D80003286ED0B04890F8D8201B
:104A600000211420FDF71CFFAC4890F8D800012865
:104A70002CD1AA4890F8D900112802D012281BD1B5
:104A80000CE00221C548FEF7EFFE18B14121A34812
:104A9000418502E00321A14841850DE04FF400511A
:104AA000BE48FEF7E1FE18B141219C48418502E075
:104AB00003219A48418500BF00BF9848B0F8C20062
:104AC000401C81B29548A0F8C21093E0934890F83A
:104AD000D8000228F9D1914890F8D900112802D0C5
:104AE00012281DD10DE04FF40071AD48FEF7BCFE59
:104AF00018B141218948C18702E003218748C18755
:104B00000EE04FF48071A648FEF7AEFE20B14121C1
:104B10008248C18703E081E003218048C18700BF4C
:104B200000BF7E48B0F8C800401C81B27B48A0F8A6
:104B3000C8105FE0CBE0FFE700211420FDF75FFC29
:104B4000764890F8D900112802D0122851D127E0D8
:104B500002219248FEF788FE50B903216F48418533
:104B6000B0F8C200401C81B26C48A0F8C21002E04C
:104B700000216A4841854FF400718948FEF774FEB0
:104B800050B903216548C187B0F8C800401C81B204
:104B90006248A0F8C81002E000216048C18728E000
:104BA0004FF400517D48FEF75FFE50B903215B488A
:104BB0004185B0F8C200401C81B25848A0F8C2102C
:104BC00002E00021554841854FF480717448FEF79A
:104BD0004BFE50B903215148C187B0F8C800401CB2
:104BE00081B24E48A0F8C81002E000214B48C187AE
:104BF00000BF00BF4C480078012805D1474890F815
:104C0000D81068A0FBF7F4FB0221444880F8B510E7
:104C10000020434908705349087008E13F4890F864
:104C20001A0101285CD13D4890F8D800032857D0DC
:104C300001213A4880F8B510016AD0F81401814288
:104C40000BD23648006A401E3449B1F81411401A9C
:104C500081B23248A0F8101108E03048016AB0F87B
:104C60001401081A81B22D48A0F810112B4890F8B1
:104C7000D800012803D100212848418507E02748B2
:104C800090F8D800022802D100212448C187234887
:104C900090F8D90012281AD1204890F8D80001289D
:104CA00005D141033D48FEF7DFFD01280AD01B482E
:104CB00090F8D80002280BD1C1013948FEF7D4FD85
:104CC000012805D1154991F8D800FFF74DF8AEE05D
:104CD00015480078012802D13E48FBF789FBA6E081
:104CE0000E4890F8D800032876D10C4890F81A01A5
:104CF000022872D1002109484185C187012180F82D
:104D0000B510016AD0F8140181426DD20348006ADF
:104D1000401E0249B1F81411401A60E02C01002035
:104D20007D00002008000020000000205761726E06
:104D3000696E673A20746865204F43502070726F27
:104D400063657373206F66207570706572206D6F78
:104D5000746F722069732074726967676572656425
:104D6000000000007C0000205761726E696E673A97
:104D700020746865204F43502070726F63657373B1
:104D8000206F66206C6F7765726D6F746F7220692B
:104D9000732074726967676572656400000C014076
:104DA000000801404572726F723A2074696D656F38
:104DB000757420647572696E6720646F6F72206FFE
:104DC0007065726174696F6E2C2049443D25640DD5
:104DD0000A00000098C5000829E021E004E081B243
:104DE000D148A0F8101108E0CF48016AB0F81401CA
:104DF000081A81B2CC48A0F810114FF40051CB48EA
:104E0000FEF732FD10B10120FEF7AEFF4FF48071C6
:104E1000C748FEF729FD50B10220FEF7A5FF06E0C6
:104E2000C4480078012802D1C3A0FBF7E1FABE48CC
:104E300090F8B90001284ED1BB4890F850001528D1
:104E400049D1B94A916D106A46F2A812FDF7AAF845
:104E5000C8B900214FF0804002F086F80221B24824
:104E6000A0F8521080F8B610B0F8CA00401C81B209
:104E7000AD48A0F8CA10AF48007801282BD1AFA0E8
:104E8000FBF7B6FA27E0A84890F81B01012822D1C9
:104E90000021800702F068F8A348016AB0F85800C2
:104EA000081A01B2A048A0F85410012180F8B610E9
:104EB0000021A0F852109F48007801280BD19A4891
:104EC000B0F95410A7A0FBF793FA9748D0F8EC106C
:104ED000B3A0FBF78DFA944890F8C400012804D0E1
:104EE000914890F8C600012879D18F48B0F8981001
:104EF000008F814207DD8C4890F83700401CC1B21A
:104F0000894880F837108848B0F89C10B0F84C00F9
:104F1000814207DD844890F84B00401CC1B28248B2
:104F200080F84B1083480078022805D17E4890F81D
:104F3000C710A2A0FBF75CFA7B4890F83700022864
:104F400014DB012200211420FDF7AAFC0021764881
:104F500080F837100621418590F8C50003281EDA35
:104F600008219D48006805F0A9FF18E06E4890F8F8
:104F70004B00022813DB022200211420FDF790FCD5
:104F80000021694880F84B100621C18790F8C700BE
:104F9000032804DA08219048006805F08FFF624A70
:104FA000D2F81411106A49F64042FCF7FBFF90BB9F
:104FB0005D4890F8C400012816D101220021142078
:104FC000FDF76EFC05215848418590F8C50003287F
:104FD00006DA08218048006805F070FF04E019E057
:104FE000EE21514880F8C4104F4890F8C6000128BF
:104FF00010D1022200211420FDF752FC05214A485D
:10500000C18790F8C700032806DA082172480068B3
:1050100005F054FF86E004E0EE21434880F8C41018
:1050200080E0414890F81A0100287BDD3E4890F866
:10503000C400012842D13C4890F8D90011281BD166
:1050400002213A48FEF710FC012815D139480078B2
:10505000022805D1344890F81A1160A0FBF7C8F96E
:10506000FF21314880F8C41090F81A01401EC1B2E7
:105070002D4880F81A1121E02B4890F8D900122809
:105080001CD14FF400512948FEF7EEFB012815D141
:10509000FF21254880F8C41026480078022805D151
:1050A000214890F81A1159A0FBF7A2F91E4890F870
:1050B0001A01401EC1B21C4880F81A111A4890F813
:1050C000C60001282ED1184890F8D900112812D115
:1050D0004FF400711648FEF7C7FB01280BD1FF21E2
:1050E000114880F8C61090F81A01401EC1B20E484F
:1050F00080F81A1116E00C4890F8D900122811D146
:105100004FF480710A48FEF7AFFB01280AD1FF2156
:10511000054880F8C61090F81A01401EC1B2024836
:1051200080F81A1110BD00002C010020000C014075
:1051300000080140000000202E0000004572726F40
:10514000723A2074696D656F757420746F206F708A
:10515000657261746520746865206C696674657237
:105160000D0A00004E6F74653A74696D65206475B0
:10517000726174696F6E206F6620746865206C6957
:1051800066746572206F7065726174696F6E2069F4
:1051900073202564207365636F6E64730D0A0000CD
:1051A0004E6F74653A726F746174696E67207374C0
:1051B0006570206973202564200D0A005761726EA6
:1051C000696E673A2074686520756F63705F6E75ED
:1051D0006D3D2025640D0A00080000205550504503
:1051E00052444F4F525F4F50454E5F494E20656EBF
:1051F00064696E672073756363657373206E756D84
:105200006265723D2025640D0A000000555050452E
:1052100052444F4F525F434C4F53455F494E203DE0
:105220002025640D0A00000000B589B00121092085
:1052300000F006FC01219A48FEF7CEFA4FF4006018
:10524000ADF8200018208DF8230003208DF82200EF
:1052500008A99448FEF734FA0121092000F0F0FB78
:1052600001219148FEF7B8FA01219048FEF7B4FAFF
:105270003020ADF8200018208DF8230003208DF891
:10528000220008A98748FEF71BFA0121102000F030
:10529000D7FB0820ADF8200010208DF82300032054
:1052A0008DF8220008A98248FEF70AFA4FF404405C
:1052B000ADF8200008A97B48FEF702FA012105207D
:1052C00000F0BEFB0F20ADF8200018208DF8230061
:1052D00003208DF8220008A97648FEF7F1F9012194
:1052E000022000F08DFB4FF4C870ADF80400724846
:1052F00000687249B0FBF1F0401E80B2ADF80000CA
:105300000020ADF80600ADF8020069466C4802F0D6
:10531000C1F86020ADF810000120ADF812000020A7
:10532000ADF81800ADF8160004A9654801F04CFF6F
:1053300004A9634801F09EFF0821614801F090FF35
:1053400008215F4801F0E8FF01215D4801F018FEE7
:1053500001215B4801F0F6FD0021594801F004FEEF
:105360000121084600F04CFB4FF47A70ADF80400C0
:10537000514800685349B0FBF1F0401E80B2ADF8CF
:1053800000000020ADF80600ADF8020069464FF0BD
:10539000804002F07FF86020ADF810000120ADF8E9
:1053A00012000020ADF81800C820ADF8160004A9BE
:1053B000C00602F019F80821C80602F053F80121CE
:1053C000880701F0DDFD0121880701F0BBFD012206
:1053D0001021880601F0E9FE00214FF0804001F025
:1053E000C3FD1C208DF80C0001208DF80D008DF8F8
:1053F0000F0003A800F06CF80121082000F000FB6A
:105400004FF47A70ADF804002B4800682D49B0FBCA
:10541000F1F0401E80B2ADF800000020ADF80600AB
:10542000ADF802006946284802F034F86020ADF873
:1054300010000120ADF812000020ADF81800ADF802
:10544000160004A9204801F0BFFE04A91E4801F07F
:1054500011FF04A91C4801F06DFF04A91A4801F0CE
:10546000C3FF0821184801F0FBFE0821164801F08F
:1054700053FF0821144801F0ADFF0821124801F044
:10548000F1FF0121104801F07BFD01210E4801F0E0
:1054900059FD00210C4801F067FD09B000BD000076
:1054A00000021800000C014000081A000002300041
:1054B00000100140000801405400002000127A0052
:1054C0000004004040420F00000C00407047000004
:1054D00070B5002100230F22C47804B3154C246852
:1054E00004F4E064C4F5E064210AC1F10403CA4095
:1054F000447804FA03F184781440214309010E4CE6
:105500000678A155047804F01F050124AC40057805
:105510006D11AD0005F1E025C5F8004109E0047802
:1055200004F01F050124AC40044D0678761145F8BF
:10553000264070BD0CED00E000E400E080E100E0FA
:1055400002490143024A1160704700000000FA0559
:105550000CED00E01FB501211C2000F071FA1020B5
:10556000ADF80C0004208DF80F0003A93448FEF7B5
:10557000A7F844F20100ADF80C0004208DF80F00EC
:1055800003A93048FEF79CF84FF40070ADF80C000A
:1055900004208DF80F0003A92B48FEF791F8012194
:1055A000084600F04DFA04210020FEF769F80021BA
:1055B0000120FEF765F80E210120FEF761F80921B0
:1055C0000220FEF75DF844F21120019000208DF8D2
:1055D00008000C208DF8090001208DF80A0001A8B0
:1055E000FDF748FE17208DF8000005208DF801001A
:1055F00001208DF802008DF803006846FFF768FF70
:1056000028208DF800006846FFF762FF0A208DF819
:1056100000006846FFF75CFF08208DF80000684630
:10562000FFF756FF07208DF800006846FFF750FF90
:1056300006208DF800006846FFF74AFF1FBD0000F6
:1056400000080140000C0140001001400EB501218E
:10565000092000F0F5F901213048FEF7BDF843F2CA
:105660000A00ADF8080004208DF80B0002A92C48B0
:10567000FEF726F801210846FEF702F80D21012069
:10568000FDF7FEFF0121202000F0DAF90420ADF83B
:1056900008008DF80B0002A92248FEF711F802213C
:1056A0000320FDF7EDFF0121102000F0C9F94FF4B0
:1056B0001C40ADF8080004208DF80B0002A91A4820
:1056C000FDF7FEFF0121042000F0BAF94FF4E0607D
:1056D000ADF8080004208DF80B0002A91348FDF76F
:1056E000EFFF0A210020FDF7CBFF09210020FDF785
:1056F000C7FF08210020FDF7C3FF42F206700090AB
:1057000000208DF8040008208DF8050001208DF898
:1057100006006846FDF7AEFD0EBD00000002300039
:10572000000C01400014014000100140000801403D
:1057300008B50121082000F083F90420ADF800002D
:1057400010208DF8030003208DF8020069460348FD
:10575000FDF7B6FF00200249086008BD000C0140BB
:10576000888121422DE9F8430446022024F8B80F2D
:105770002088401C6188B83C884207DC34F8B81F98
:105780002088401C24F8B809655C00E00025B4F8C6
:10579000B800401CB4F8BA10884208DC34F8B81FCE
:1057A0002088401C24F8B80914F8018001E04FF06B
:1057B0000008B8F1000F07D08048017848F20200D5
:1057C00001F0E7F8BDE8F883B4F8B800401CB4F87D
:1057D000BA10884207DC34F8B81F2088401C24F82F
:1057E000B809665C00E00026B4F8B800401CB4F8C4
:1057F000BA10884208DC34F8B81F2088401C24F80E
:10580000B80914F8019001E04FF00009002715E0F5
:10581000B4F8B800401CB4F8BA10884209DC34F877
:10582000B81F2088401C24F8B809605C0DF80700F8
:1058300002E000200DF80700781CC7B2B742E7DB92
:10584000B52D07DCB4F8BA10281D814202D1F01C36
:10585000854206D05948017848F2020001F099F8D3
:10586000B0E7574880F85861B9F1290F4AD017DCE2
:10587000B9F1100F31D009DCB9F1010F25D0B9F120
:10588000020F26D0B9F1030F76D182E0B9F1110FE2
:1058900027D0B9F1120F28D0B9F1150F6CD128E03B
:1058A000B9F1310F78D009DCB9F12A0F3FD0B9F145
:1058B0002B0F56D0B9F12C0F75D166E0B9F1320F2C
:1058C0006DD0B9F13C0F6ED117E02046FBF70CFE0E
:1058D00070E02046FBF792FE6CE02046FBF74CFFA1
:1058E00068E02046FCF752F864E02046FBF750FCE5
:1058F00060E02046FCF75EF85CE09DF8000031496E
:10590000087057E02E4890F8B70048B92C4890F836
:10591000B30028B99DF800002921FBF70BFD05E035
:105920002648017848F2040001F033F842E02448A8
:1059300090F8B30070B9224890F8B70050B99DF8BC
:1059400002209DF801109DF800001C4B1B78FBF70E
:105950009FFB05E01948017848F2040001F019F8AE
:1059600028E0174890F8B90040B99DF800001349A5
:105970000978FBF79FFC07E015E00DE00F48017880
:1059800048F2040001F005F814E06846FBF762FCF9
:1059900010E0FBF7BBFD0DE0FBF7A6FA0AE0684656
:1059A000FBF70AFC06E0054801784FF4004000F0E0
:1059B000F0FF00BF00BF00BF04E70000840000202C
:1059C0002C0100200000002001460020034A5068FE
:1059D00020F440400843506070470000001002402F
:1059E00029B1064A52690243044B5A6104E0034A52
:1059F00052698243014B5A61704700000010024017
:105A000029B1064AD2690243044BDA6104E0034A31
:105A1000D2698243014BDA617047000000100240F6
:105A200029B1064A12690243044B1A6104E0034A91
:105A300012698243014B1A61704700000010024056
:105A400029B1064A92690243044B9A6104E0034A71
:105A500092698243014B9A61704700000010024036
:105A600029B1064AD2680243044BDA6004E0034AD3
:105A7000D2688243014BDA60704700000010024098
:105A800030B500210022002400232D4D6D6805F063
:105A90000C0121B1042905D0082923D105E0294DA5
:105AA000056022E0274D05601FE0254D6D6805F477
:105AB0007012234D6D6805F48034022505EB924287
:105AC0001CB9214D554305600BE01D4D6D6805F473
:105AD00000351DB11C4D5543056002E0194D55437D
