:020000040800F2
:1000000028A8002095020008B534000873240008D1
:100010002D2C000871100008B94F000800000000E6
:10002000000000000000000000000000FD010008CA
:10003000191800080000000041020008B14400083F
:10004000AF020008AF020008AF020008AF020008CC
:10005000AF020008AF020008A91D0008211F000818
:10006000751F0008AF020008D51F00089114000892
:10007000AF020008AF020008AF020008AF0200089C
:10008000AF020008AF020008AF020008AF0200088C
:10009000794F0008AF020008AF02000801200008F5
:1000A000AF020008AF020008AF0200081D450008BB
:1000B0009D460008AF020008AF020008AF0200082A
:1000C000AF020008AF020008AF020008AF0200084C
:1000D000AF020008814D0008AF020008AF0200081F
:1000E000191E0008AF020008AF020008AF020008A6
:1000F000AF020008AF020008AF020008AF0200081C
:10010000AF020008AF020008AF020008AF0200080B
:10011000AF020008AF020008E5460008AF02000881
:10012000AF020008AF020008AF020008AF020008EB
:1001300000F002F800F042F80AA090E8000C8244B7
:100140008344AAF10107DA4501D100F037F8AFF294
:10015000090EBAE80F0013F0010F18BFFB1A43F0A5
:1001600001031847C4870000E4870000103A24BF49
:1001700078C878C1FAD8520724BF30C830C144BF0C
:1001800004680C607047000000230024002500264E
:10019000103A28BF78C1FBD8520728BF30C148BFEA
:1001A0000B607047642900F01381732900F0F68218
:1001B000002070471FB51FBD10B510BD00F02CFB0F
:1001C0001146FFF7F7FF05F053FD00F04AFB03B4BB
:1001D000FFF7F2FF03BC05F03DF90000EFF30980E3
:1001E000704780F309887047EFF30880704780F309
:1001F0000888704740BA7047C0BA7047224B1968E8
:100200000868B0E8F00F80F30988BFF36F8F4FF0F4
:10021000000080F311884EF00D0E704700000000C2
:1002200006480068006880F3088862B661B6BFF3CC
:100230004F8FBFF36F8F00DF00BF00BF08ED00E0FE
:10024000EFF30980BFF36F8F0F4B1A6820E9F00FAF
:10025000106008B54FF0500080F31188BFF34F8F46
:10026000BFF36F8F07F0A6F94FF0000080F31188FD
:10027000BDE8084019680868B0E8F00F80F3098805
:10028000BFF36F8F704700BF80000020EFF3058041
:10029000704700000948804709480047FEE7FEE72D
:1002A000FEE7FEE7FEE7FEE7FEE7FEE7FEE7FEE726
:1002B00004480549054A064B70470000CD44000834
:1002C000310100082840002028A8002028A4002090
:1002D00028A400207047B2F120030AD5C2F1200300
:1002E00020FA02F001FA03F321FA02F140EA0300D6
:1002F000704721FA03F04FF0000170470FB4044932
:1003000010B503AA029800F04DFA10BC5DF814FB7A
:10031000680000202DE9F0410E46044600202062CE
:100320002046E168884730B3252805D0D4E901216B
:100330009047206A401CF2E7E16820460027884782
:10034000050018D0A5F14100192802D820354FF436
:1003500000673246294620462760FFF723FF40B159
:10036000012804D0F61D26F007060836D8E7361D0A
:10037000D6E72846DAE7206ABDE8F08170B50C467A
:100380000546012A05D02878800600D5EA690023B1
:1003900002E0012305E05B1C934202D2E05C0028EE
:1003A000F9D1A869E618C01AA861286A1844286219
:1003B0002846AFF3008004E0D5E9012114F8010BD1
:1003C0009047B442F8D32846AFF3008070BD0000D8
:1003D0002DE9F0410646002410687529314616A51E
:1003E00010D0AFF30080002802DA404213A507E0E6
:1003F00031688A0701D512A502E0490704D511A585
:10040000012401E0AFF3008000210A2206F1240755
:1004100009E0B0FBF2FCB0FBF2F302FB1C00303051
:1004200078541846491C0028F3D123462A46304602
:10043000BDE8F04100F02FB9000000002D000000E1
:100440002B0000002000000010B5002000F0BCF9D7
:10045000FFF7B2FEBDE81040012004F0FBBF40EA08
:10046000010310B59B070FD1042A0DD310C808C98A
:10047000121F9C42F8D020BA19BA884201D9012033
:1004800010BD4FF0FF3010BD1AB1D30703D0521C7E
:1004900007E0002010BD10F8013B11F8014B1B1BB9
:1004A00007D110F8013B11F8014B1B1B01D1921E23
:1004B000F1D1184610BD40EA0103024630B59B0752
:1004C00010D14FF0013400E008C208C91D1B9D4344
:1004D00015EAC41FF8D013F0FF0102F8011B0DD07C
:1004E0001B0AF8E711F8013B002B02F8013B05D08D
:1004F00011F8013B002B02F8013BF3D130BD032A78
:1005000040F2308010F0030C00F0158011F8013B30
:10051000BCF1020F624498BF11F801CB00F8013B17
:1005200038BF11F8013BA2F1040298BF00F801CBDB
:1005300038BF00F8013B11F0030300F02580083AB2
:10054000C0F0088051F8043B083A51F804CBA0E809
:100550000810F5E7121D5CBF51F8043B40F8043B5E
:10056000AFF30080D20724BF11F8013B11F801CB93
:1005700048BF11F8012B24BF00F8013B00F801CB64
:1005800048BF00F8012B704710B5203AC0F00B802F
:10059000B1E81850203AA0E81850B1E81850A0E887
:1005A0001850BFF4F5AF5FEA027C24BFB1E81850E1
:1005B000A0E8185044BF18C918C0BDE810405FEA51
:1005C000827C24BF51F8043B40F8043B08BF7047CD
:1005D000D20728BF31F8023B48BF11F8012B28BFD2
:1005E00020F8023B48BF00F8012B704702F0FF03E0
:1005F00043EA032242EA024200F002B84FF000024E
:100600000429C0F0128010F0030C00F01B80CCF124
:10061000040CBCF1020F18BF00F8012BA8BF20F892
:10062000022BA1EB0C0100F00DB85FEAC17C24BFE6
:1006300000F8012B00F8012B48BF00F8012B704790
:100640004FF0000200B5134694469646203922BF6B
:10065000A0E80C50A0E80C50B1F12001BFF4F7AFB6
:10066000090728BFA0E80C5048BF0CC05DF804EB98
:10067000890028BF40F8042B08BF704748BF20F806
:10068000022B11F0804F18BF00F8012B7047704704
:100690007047704770472DE9F0470D4699469246DE
:1006A000044600F124080168880604D5E06921F0B9
:1006B0001001216000E00120A84201DD471B00E09D
:1006C0000027A1697A1902EB0900081AA0612078B5
:1006D000C00602D42046AFF30080002608E0D4E92B
:1006E00001211AF806009047206A401C761C2062FF
:1006F0004E45F4DB2078C0060AD52046AFF30080D3
:1007000006E0D4E9012130209047206A401C206295
:10071000381EA7F10107F4DC07E0D4E9012118F83D
:1007200005009047206A401C2062281EA5F10105A3
:10073000F3DC2046AFF300802078000602D50220CB
:10074000BDE8F0870120FBE701694A1C02610878D7
:10075000704700B58FB0CDE9013100210591054901
:100760007944CDE9031011466846FFF7D3FD0FB079
:1007700000BD0000E5FFFFFF10B5436913B1AFF303
:10078000008001E0FFF7FAFD012010BD127800F1B2
:1007900024010A7000224A700122EDE711684FF02F
:1007A000FF32E9E7074B70B50D467B44FFF7D1FFF9
:1007B0000446284600F00FF810B14FF0FF3070BD2E
:1007C000204670BDA753000010B500F00DF8BDE83D
:1007D000104000F004B8007B00F080007047002853
:1007E00001D004F037BE704710B5002102A000F020
:1007F00041F8012010BD0000534947414252543A8C
:100800002041626E6F726D616C207465726D696EED
:100810006174696F6E000000754600F045F8AE46E1
:1008200005006946534620F00700854618B020B5FC
:10083000FFF73EFDBDE820404FF000064FF00007F7
:100840004FF000084FF0000B21F00701AC46ACE878
:10085000C009ACE8C009ACE8C009ACE8C0098D46E5
:10086000704710B50446AFF300802046BDE8104045
:10087000FFF7ADBC70B505460C460A2000E06D1CC4
:1008800004F0E9FD35B128780028F8D102E0641CB5
:1008900004F0E1FD14B120780028F8D1BDE87040E3
:1008A0000A2004F0D8BD000000487047C43F002073
:1008B00010B588B00121042003F018F841F2883007
:1008C000ADF8140019481A491A4C0068B0FBF1F051
:1008D000401EADF810000020ADF81600ADF8120073
:1008E00004A9204604F052F96020ADF80000012070
:1008F000ADF802004FF47A70ADF806000220ADF8B2
:1009000008006946204604F0F9F80021204603F06B
:1009100039FF204604F018F80821204604F020F999
:100920000021204604F080F908B010BD38000020F6
:10093000A0860100000800400029816802D041F033
:10094000010101E021F00101816070470029816807
:1009500002D041F4807101E021F480718160704720
:100960000D4910B5884202D1012144150AE00B4916
:10097000884202D10121041504E0094988420AD1C4
:100980000121CC03204602F0D5FF2046BDE81040EF
:10099000002102F0CFBF10BD00240140002801401B
:1009A000003C01400029816802D041F4801101E03F
:1009B00021F4801181607047014600208968490751
:1009C00000D501207047014600208968090700D53D
:1009D0000120704710B542680E4B0C791A400B6825
:1009E00042EA04221343436083680B4A1340D1E96F
:1009F000024222434C7943EA44031A438260C26AAA
:100A0000097C22F47002491EC9B242EA0151C16256
:100A100010BD0000FFFEF0FFFDF7F1FF70B50724E9
:100A200009290AD9C568A1F10A0606EB4606B440B1
:100A3000A543B3401D43C56007E0056901EB4106CE
:100A4000B440A543B3401D4305611F23072A09D2C3
:100A5000446B521E02EB820293409C4391400C4334
:100A6000446370BD0D2A09D2046BD21F02EB8202CF
:100A700093409C4391400C43046370BDC46A0D3A9B
:100A800002EB820293409C4391400C43C46270BDD0
:100A9000816841F0080181607047816841F004017C
:100AA0008160704710B5B0B0AB218DF80010002008
:100AB000012256238DF8040002218DF80130032114
:100AC00006208DF805208DF80210ADF8B8006C46B0
:100AD000ADF8BA0004218DF803200523A01C00F016
:100AE000ABFCBDF8B8106054BDF8B800401CADF8C0
:100AF000B800ADF8BA00684603F06EFC30B010BD27
:100B00002DE9F041204C07461D4694F84C010E4655
:100B1000032803D02A2148F2010022E011201221EB
:100B200048F20303012F02D0022F11D017E0012E4B
:100B300009D0022E07D012E0022A19D02946184601
:100B400003F012FC16E084F8CC60012AF4D10CE02A
:100B5000032684F8CC60012A07D0022A08D029464F
:100B60001846BDE8F04103F0FFBB84F8CD0001E07A
:100B700084F8CD10284600F091F80448022100685E
:100B8000BDE8F04106F076BD080100200800002015
:100B9000064890F84C1121B1122148F2010003F0EF
:100BA000E3BB002180F84A117047000008010020D3
:100BB00006484FF02C0190F84C01022802D048F270
:100BC000010001E048F2030003F0CEBB0801002061
:100BD00070B5154C94F84C21012A03D02A2148F213
:100BE00001000BE0012501280CD002280DD00328BC
:100BF0000BD0002084F8E40048F20300BDE8704008
:100C000003F0B2BB84F8E45001E084F8E400084645
:100C100000F044F8054884F8AD5004210068BDE8B0
:100C2000704006F027BD00000801002008000020E9
:100C300010B5184C94F84C21012A03D0292148F210
:100C400001000BE0112201280CD0122302280CD045
:100C500003280DD004280ED048F20300BDE8104050
:100C600003F082BB84F8642007E084F8643004E079
:100C700084F8782001E084F87830084600F00EF817
:100C8000012084F8AB00014603480068BDE810402D
:100C900006F0F0BC080100200800002030B5AFB01D
:100CA000AB218DF800100221562503468DF8015026
:100CB00003218DF80210012000228DF80300052089
:100CC0008DF8042006208DF80530ADF8B8006C468C
:100CD000ADF8BA000421A01C00F0AEFBBDF8B810BE
:100CE0006054BDF8B800401CADF8B800ADF8BA00CB
:100CF000684603F071FB2FB030BD0000054890F846
:100D00004C0120B1012148F2010003F02DBBFFF797
:100D1000C9BE0000080100202DE9F0412F4890F8DD
:100D20004C0130B1BDE8F041032148F2010003F06D
:100D30001BBB2B4E4FF480552946304601F08EFBED
:100D40000446AF103946304601F088FB0146204684
:100D500005F09AF9234C2946234D2070284601F0CE
:100D60007DFB8046E914304601F078FB01464046A1
:100D700005F08AF960700221284601F06FFB0646F3
:100D80006914284601F06AFB0146304605F07CF9FB
:100D9000164EA0706915304601F060FB0546B1158E
:100DA000304601F05BFB0146284605F06DF9E07026
:100DB00004210F4801F052FB05463946304601F048
:100DC0004DFB0146284605F05FF920712246BDE83B
:100DD000F04105230021032000F078B8080100202D
:100DE0000010014061000020000C0140000801409B
:100DF000001401402B4810B590F84C01B0B030B150
:100E0000022148F2010003F0AFFA30B010BD00201B
:100E1000AB208DF8000056228DF8012021228DF89C
:100E2000022001211E2202200320042005208DF82B
:100E3000042006208DF80510ADF8B800ADF8BA0012
:100E40008DF8031017486C465FF00001BDF8B8201C
:100E5000531CB52B06D2435CA354BDF8B820521CDA
:100E6000ADF8B820491C92B2C9B2ADF8BA201E291B
:100E7000ECD3BDF8B800411CB5290CD2801E81B25C
:100E8000A01C00F0D9FABDF8B8106054BDF8B80045
:100E9000401CADF8B80080B2ADF8BA00684603F067
:100EA0009BFAB2E708010020064890F84C0120B1F7
:100EB000102148F2010003F057BA0021024803F064
:100EC00061BC000008010020000C0040F0B5AFB08C
:100ED000AB268DF8006056268DF801601F1D012598
:100EE0000326042602258DF802705E1C00248DF86E
:100EF000035005258DF8046006258DF80500ADF832
:100F0000B8506C46ADF8BA5021B18DF806100720E4
:100F1000ADF8B800BDF8B800ADF8BA0000210DE09A
:100F2000BDF8B800451CB52D06D2555C2554BDF85A
:100F3000B800401CADF8B800491CC9B29942EFD3C3
:100F4000BDF8B810ADF8BA10481CB5280CD2891EEF
:100F500089B2A01C00F070FABDF8B8106054BDF85A
:100F6000B800401CADF8B800BDF8B800ADF8BA0044
:100F7000684603F031FA2FB0F0BD0000064890F843
:100F80004C1121B1112148F2010003F0EDB901210A
:100F900080F84A1170470000080100202DE9FC414B
:100FA000314C48F2010694F84C11072902D0152162
:100FB000304642E0B0F8B810B0F8BA300A46491CE2
:100FC000994203D8A0F8B810855C00E00025002104
:100FD0006F468C4611E000BFB0F8B820B0F8BAE018
:100FE0001346521C724504D8A0F8B820C25C7A544B
:100FF00001E007F801C0491CC9B294F84C218A42AB
:10100000EAD8384600F030FA0028D0D0174E012D2B
:101010000DD101F01BF9342001F0B0F8304601F099
:10102000B3F80121304601F0E9F801F0DFF830684B
:10103000012806D0152148F2020003F095F9BDE819
:10104000FC81FFF72FFD256A206A0522294600F062
:10105000FFF90028F8D14FF0006044680068FFF7FE
:10106000C6F8A047EBE70000080100200048000890
:10107000FEE70000F0B501214C068BB0204602F0DF
:1010800035FC0121042002F049FCA013ADF8240036
:1010900048208DF827003B4D03268DF8266009A9CE
:1010A000284601F05DF96013ADF8240018208DF892
:1010B000270009A9284601F053F9334F384600F0BC
:1010C0006BF802A800F0A8F90121204602F00EFCFE
:1010D00000248DF80E408DF80F4005208DF80C008F
:1010E00004208DF8104001258DF80A408DF80D0080
:1010F0008DF811508DF80B4006208DF81240ADF898
:1011000008008DF8135002A9384600F0C9F8ADF870
:10111000144044F20440ADF816008DF81E40ADF8BE
:1011200018604FF604408DF81F408DF82050ADF840
:101130001A00ADF81C408DF8215005A800F042F8C7
:1011400001220221384600F0A3F814208DF828006F
:101150008DF829508DF82A408DF82B500AA802F0FE
:10116000ABF90A48CDE900040A49094BAA02A1F1EA
:10117000240004F0C7FB07480821243804F003FCCE
:101180000BB0F0BD0008014000640040C56A0008D3
:10119000B55F0008E0050020094910B588424FF00E
:1011A000010101D14C0601E04FF08064204602F0BD
:1011B000A9FB2046BDE81040002102F0A3BB0000BF
:1011C00000640040F0B5827A012191402E4A1368F4
:1011D00043F0010313602C4B1C331C688C431C60D0
:1011E000294D067B294C0C35A6B92E688E432E60FE
:1011F0004688C78846EA0746877A04EBC707C7F8D8
:1012000040660688878846EA0746877A04EBC70760
:10121000C7F84466067B012E12D12E680E432E605D
:10122000867A056804EBC6064FEA3545C6F840568F
:10123000867A456804EBC6044FEA3545C4F844563F
:10124000114CC57A241D002D256806D00D4325605C
:101250000D4C0589143415B104E08D43F7E725687A
:101260008D4325600589012D02D125680D43256038
:10127000407B012802D1186808431860106820F0EC
:1012800001001060F0BD00000066004000600040FA
:10129000002A426901D00A4300E08A434261704754
:1012A00010B50368002223F002030360036843F0D3
:1012B000010303604FF6FF7300E0521C4468E4072B
:1012C00001D19A42F9D14268D2073ED08A79012AE7
:1012D00002683CD022F080020260CA79012A0268CA
:1012E00038D022F0400202600A7A012A026834D023
:1012F00022F0200202604A7A012A026830D022F0ED
:10130000100202608A7A012A02682CD022F00802B8
:101310000260CA7A012A026828D022F00402026020
:101320008A78CC78920742EA04620C7942EA044255
:101330004C79098842EA0452491E0A43C261016895
:1013400021F001010160002114E0002010BD42F0F5
:101350008002C1E742F04002C5E742F02002C9E73F
:1013600042F01002CDE742F00802D1E742F0040259
:10137000D5E7491C4268D20701D09942F9D14068AB
:10138000C007E2D1012010BD10B500EB0113D3F866
:10139000B04114F004041472D3F8B04134D0E4081E
:1013A000C2F80440D3F8B04104F002045472D3F8F8
:1013B000B44104F00F049472D3F8B441240AD474F5
:1013C000D3F8B841D472D3F8B841240A1473D3F8CF
:1013D000B841240C5473D3F8B841240E9473D3F855
:1013E000BC41D473D3F8BC41240A1474D3F8BC4173
:1013F000240C5474D3F8BC311B0E937439B10169B9
:1014000041F02001016110BD640D1460CAE7C1689C
:1014100041F02001C16010BD00218171C1710172D4
:1014200041728172C1728170C17003210171022108
:10143000417101210180704710B50346002210461A
:1014400003E09C5C6040521CD2B28A42F9D310BDCA
:10145000884201D3401A01E0C9430844904201D2B6
:10146000012070470020704710B5084A002153182A
:10147000445C93F84D31A34201D0002010BD491CBB
:10148000C9B20629F3D3012010BD000008010020D5
:1014900038B5022000F014F900282BD0022000F00B
:1014A00081F8022000F072F80021134803F06AF975
:1014B00000211248FFF740FA114C0021204600F0AD
:1014C0007DF80521204600F030F90E49012081F811
:1014D00024000D486946006806F002FD012809D184
:1014E0000098002806D0094960060860BFF34F8FB6
:1014F000BFF36F8F38BD000000080040002401409A
:1015000008000240080100201000002004ED00E067
:1015100010B501218CB0084602F0DCF9184C2046C9
:1015200000F058F81748009017480021CDE9010154
:101530000520CDE903018020059040000690800041
:10154000CDE907018000CDE909016946204600F098
:10155000CFF801220221204600F0C2F80B208DF8BE
:101560002C000A208DF82D0001208DF82F000BA8EB
:1015700001F0A2FF0121204600F020F80CB010BDC0
:10158000080002404C24014094010020C10002D513
:1015900002490860704702494860704704040240ED
:1015A00000000240C10002D50249086070470249AC
:1015B00048607047040402400000024000290168AE
:1015C00002D041F0010102E04FF6FE7211400160CD
:1015D0007047000001684FF6FE7211400160002163
:1015E000016041608160C1603149314A08399042EF
:1015F00003D1486840F00F0006E02D4A14329042B3
:1016000004D1486840F0F00048607047284A28320A
:10161000904203D1486840F47060F5E7244A3C32B8
:10162000904203D1486840F47040EDE7204A5032C0
:10163000904203D1486840F47020E5E71C4A6432C8
:10164000904203D1486840F47000DDE7184A7832D0
:10165000904203D1486840F07060D5E7154A111FE9
:10166000904203D1086840F00F0006E0114A14329E
:10167000904204D1086840F0F000086070470D4ABD
:101680002832904203D1086840F47060F5E7094AB7
:101690003C32904203D1086840F47040EDE7054ABF
:1016A00050329042EAD1086840F47020E5E700002B
:1016B0000800024008040240406880B27047000001
:1016C00001460020CA0001D5034A00E0034A12681F
:1016D0000A4200D00120704700040240000002408E
:1016E000002A026801D00A4300E08A430260704782
:1016F00030B5036847F6F07293430C6A8A68224358
:10170000D1E904452C4322438C692243CC6922430E
:101710004C6A22438C6A22431A430260CA684260C0
:101720000A6882604968C16030BD4160704700004E
:1017300070B54FF400450024284604F023FA134EF8
:1017400004E0641CE4B2012004F09CF92946304610
:1017500000F084FE10B1C82CF3D30FE0C82C0DD2DA
:10176000002404E0641CE4B20A2004F08BF929464A
:10177000304600F073FE18B1182C04D3012070BD60
:10178000182CEFD3FAE7002070BD000000080140DC
:1017900038B50121042002F0C1F80121084602F009
:1017A000BDF801210D4800F02DFE4FF40044ADF8C6
:1017B000004010208DF803000320094D8DF8020031
:1017C0006946284600F0CCFD2146284600F04FFE31
:1017D00000F008F8FFF7ACFF38BD00000002300051
:1017E0000008014070B54FF40044204604F034FC7A
:1017F000084D2146284600F038FE40F2EE2004F065
:1018000041F92146284600F032FEBDE870400F2025
:1018100004F038B900080140704770B50C46054621
:10182000012200F011F921462846BDE8704002224D
:1018300000F00AB92DE9F84F80A0814C00680090B3
:10184000214694F8CC001427DFF8F89101260025F2
:1018500091F8CD104FF0C80A4FF00A0842F6E06B3D
:10186000032874D06585E58784F8A660012200F01E
:1018700047F994F8CC201520012A02D0022A22D060
:101880002BE0618D41B9B4F8661029B994F8A6101F
:1018900011B184F8280020E084F8A960B4F8B600FB
:1018A000401CA4F8B60094F8CD00122802D1012003
:1018B00000F08EFF94F82A008DF8000094F866007E
:1018C0008DF802003BE0E18F19BBB4F87A1001BB40
:1018D00094F8A610E9B184F83C0084F80C5150202B
:1018E000C4F8D850A4F8D000A4F8D2A084F8D470DA
:1018F00084F8D58084F8A760A4F8F050206A2946BF
:10190000C4F80801A4F804B194F8CD0000F09CF8E4
:1019100073E084F8A960B4F8BC00401CA4F8BC00D3
:1019200094F8CD00122802D1022000F051FF94F863
:101930003E008DF8010094F87A008DF8030094F8C9
:10194000A91004232A206A468A3431E0FFE784F88C
:101950000C516585E5870222012000F0D1F80222B2
:1019600094F8CD10104600F0CBF8B4F87A0018B90E
:10197000E18F09B9618D01B3022184F8A91034F80F
:10198000BC2F0423521C24F83229A28D521CA2859C
:1019900014F8602C8DF8002014F8242C8DF8022007
:1019A00014F84C2C8DF801208DF803006A462A208B
:1019B000FFF78CFAE577BDE8F88F94F80C01022860
:1019C00026D084F8A6604FF49670C4F8D850A4F8D6
:1019D000D000A4F8D2A084F8D47084F8D580A4F8FC
:1019E000F050206A2946C4F80801A4F804B184F82C
:1019F000A76094F8CD00FFF710FF012202214C46AA
:101A0000484602F099FF0121204602F0BBFED2E7D2
:101A100084F8A9608DF8005094F866008DF80200F3
:101A20008DF8015031468DF8035004236A462A2070
:101A30008A34FFF74BFAE5776577BCE7FFFFFFFFD6
:101A400008010020002C01402DE9F0410C464FF424
:101A500061718C4201DD0C4602E00A2C00DA0A2496
:101A6000254D1427254E012A17D0022A13D196F8A6
:101A70003C1015290FD111282DD0122831D014284F
:101A800009D10021284603F07BF80021284603F005
:101A900079F886F83C70BDE8F08196F82810152991
:101AA000F9D111280FD012280FD01428F3D186F8BD
:101AB00028700021284603F05FF800212846BDE881
:101AC000F04103F05BB8A1B2F4E70021284603F02F
:101AD00053F8A1B2F2E7A1B2284603F051F8002171
:101AE00004E00021284603F04BF8A1B22846BDE8E7
:101AF000F04103F047B80000000C0040080100204E
:101B00002DE9F047FF279046894605463E4600F0FE
:101B100071FF364C4FF0150A012D02D0022D0ED068
:101B20001BE0334E0221304600F098FC074671144A
:101B3000304600F093FC064684F828A00DE02D4EB8
:101B40004FF40071304600F089FC0746B11530466D
:101B500000F084FC064684F83CA0B9F1110F03D0D4
:101B6000B9F1120F04D005E0012F03D1012015E0D7
:101B7000012E12D03E4333D1B4F8660008B1012DD6
:101B800005D0B4F87A0000282AD0022D28D1494681
:101B90002846BDE8F04700F02FB80220012D02D002
:101BA000022D03D004E084F8B30001E084F8B4000F
:101BB000B8F1010F04D1002084F8A60084F8A70032
:101BC0001420012D0ED0022D0AD184F83C0000BF54
:101BD000B8F1020F04D194F80C01401C84F80C01F8
:101BE000BDE8F08784F82800F2E700000801002033
:101BF000000C0140000801402DE9F05F0B4611295F
:101C000011D01126C8211522DFF88491614F624C52
:101C100041F2883C4FF0140A4FF0000B012804D029
:101C2000022838D154E01226ECE7236A2363A4F893
:101C30002CC0A18684F8282002463046FFF704FF16
:101C4000D846BB46122E09D00221544800F006FCAB
:101C5000074694F82400012803D00EE04FF4005109
:101C6000F3E784F8248000F02DFB01215846FFF7AC
:101C7000A5FC01214A48FEF75FFE206A216B401A4D
:101C800000D5C043B4F92C10814200DC27B1012FEC
:101C900010D0002FD6D059E00320608500214D469A
:101CA000484602F069FF0021284602F067FF84F8E9
:101CB00028A05BE0A4F82A8000214D46484602F0A7
:101CC0005BFF0021284602F059FF84F828A05DE060
:101CD000D4F82080C4F84480A4F840C0A4F8481088
:101CE000112B00D1122384F83C2002461846FFF73E
:101CF000ABFED846DFF8A8B0122E0AD04FF4007120
:101D0000284800F0ABFB074694F82400012803D0D4
:101D10000EE04FF48071F3E784F8248000F0D2FAEB
:101D200001211C48FFF74AFC01215846FEF704FE3A
:101D3000206A616C401A00D5C043B4F9401081425A
:101D400000DC37B1012F14D0002FD5D02846BDE8D4
:101D5000F09F0320E08784F83CA000214C464846D1
:101D600002F00EFF0021204602F00CFF4FF0FF357D
:101D7000ECE7A4F83E8084F83CA000214C4648469D
:101D800002F0FEFE0021204602F0FCFE0025DDE709
:101D9000000C00400800024008010020000C014037
:101DA000002401400008014010B5012000F0A4F912
:101DB00001281CD100F09AF9012000F091F90121CD
:101DC0000B4800F04BFB002811D10A4C94F8A700F7
:101DD00001280CD1012200211420FFF735FE01203B
:101DE00084F8B800BDE8104003A0FEF787BA10BD24
:101DF000000C0140080100205570706572646F6F1F
:101E000072204F435020697320747269676765724E
:101E10007265640D0A0000002DE9F0414FF480471F
:101E2000384600F069F93A4E01253A4C012822D192
:101E3000384600F05BF9384600F052F93946304632
:101E400000F00CFBB8B994F86400A0B194F87800E5
:101E500088B994F87300401CC0B284F8730002285B
:101E600009D3002084F8730084F8C750B4F8C00088
:101E7000401CA4F8C0004FF40057384600F03CF96D
:101E800001281CD1384600F031F9384600F028F915
:101E90003946304600F0E2FA88B1012200211420D0
:101EA000FFF7D2FD94F8A700012808D194F8CD00DF
:101EB000122804D194F80C01401C84F80C014FF452
:101EC0008066304600F018F901281ED1304600F037
:101ED00007F9304600F00AF994F85000152814D19B
:101EE00031460D4800F0BAFA00280ED00021300526
:101EF00002F048FC00220421084802F01DFD94F87D
:101F00005E00112801D184F80D51BDE8F081000078
:101F1000000C01400801002000080140002C014095
:101F200010B5022000F0E8F801281ED1022000F0D0
:101F3000DDF8022000F0D4F802210C4800F08EFAFF
:101F4000002812D0012200211420FFF77DFD08484F
:101F500090F8A710012908D190F8CD10112904D1CB
:101F600090F80C11491C80F80C1110BD000C0140B8
:101F70000801002010B5042000F0BEF8012821D18E
:101F8000042000F0ADF8042000F0B0F80E4C94F8F6
:101F90005000152816D104210C4800F05FFA0028E3
:101FA00010D000214FF0804002F0ECFB0022042111
:101FB000074802F0C1FC94F85E00122802D101200B
:101FC00084F80D0110BD000008010020001401403C
:101FD000002C014010B5102000F08EF801280BD124
:101FE000102000F083F8102000F07AF8BDE81040CF
:101FF0001021024800F032BA10BD00000008014074
:1020000070B54FF40075284600F076F8314E324C2A
:10201000012838D1284600F069F8284600F060F819
:1020200029462E4800F01AFAB0B994F85F00401C17
:10203000C0B284F85F0002280ED30021132000F004
:1020400063FB012084F8C600B4F8C400401CA4F867
:10205000C400002084F85F002946304600F0FEF9F5
:1020600088B1022200211420FFF7EEFC94F8A700AB
:10207000012808D194F8CD00112804D194F80C015E
:10208000401C84F80C014FF48075284600F034F8A9
:1020900001281DD1284600F023F8284600F026F834
:1020A0002946304600F0DAF9002811D0022200213A
:1020B0001420FFF7C9FC94F8A700012808D194F870
:1020C000CD00122804D194F80C01401C84F80C01B6
:1020D00070BD000000080140080100200010014010
:1020E000014908607047000014040140014908607C
:1020F0007047000014040140034A014600201268A2
:102100000A4200D0012070471404014030B51A493A
:102110008379026853B30B6893430B600A1D1368FD
:102120000468A343136002790A44136804682343D4
:102130001360114A083213680468A3431360131D27
:102140001C680568AC431C604479102C05D0214400
:102150000A68006802430A6030BD116804682143C0
:102160001160196800680143196030BD00790844A6
:1021700001689143016030BD000401400149C8601D
:10218000704700000020024070B505464FF430262D
:10219000304600F067F8042811D1094C206940F05E
:1021A000020020616561206940F0400020613046F6
:1021B00000F058F8216941F6FD721140216170BDAF
:1021C0000020024008490420CA68D20701D001203B
:1021D0007047CA68520701D502207047C968C9060E
:1021E000FBD503207047000000200240024801692F
:1021F00041F0800101617047002002402DE9F84163
:10220000064600204FF4005700900D46384600F077
:1022100029F8042816D10C4C206940F001002061F7
:102220003580B846384600F01DF8BF1E042806D198
:10223000B61C280C00963080404600F013F8216947
:1022400039402161BDE8F88100200240034802497D
:102250004160034941607047230167450020024007
:10226000AB89EFCD00B50346FFF7ACFF03E000BF3D
:10227000FFF7A8FF5B1E012803D0002B00D105202B
:1022800000BD002BF4D1FAE70D490020152281F89A
:102290000C01084691F8B83090F8CD00012B09D018
:1022A00091F8BA30012B09D181F83C200222642137
:1022B000FFF7CABB81F828200122F8E77047000029
:1022C0000801002070B5194C4FF47A7140F6FF7583
:1022D00034F88C0F4843B0FBF5F006F0DAF94FF014
:1022E0006632134B06F0E8F90022124B06F0E4F9CF
:1022F00006F0A2F96081608841F230114843B0FBDA
:10230000F5F0A081A0884843B0FBF5F0E081E088BB
:102310004843B0FBF5F0208220894FF48671484392
:102320004FF47A71B0FBF1F0608270BD08010020BB
:1023300066660A400000264010B58A0721F00304B3
:102340000649130F21440F228C689A4094438C60F5
:102350008A68984002438A6010BD00000000014076
:10236000F0B5CA78002502F00F03D20601D58A78AD
:1023700013430A784FF00F0E12F0FF0F4FF00102D7
:102380001CD004680F8802FA05F63740B74211D115
:102390004FEA850C0EFA0CF724EA070703FA0CF44F
:1023A0003C43CF78282F02D0482F02D002E046616C
:1023B00000E006616D1C082DE4D304600C88FF2C3E
:1023C0001ED944685FF0000606F1080702FA07F517
:1023D0000F882F40AF420FD14FEA860C0EFA0CF750
:1023E000BC4303FA0CF73C43CF78282F00D145615A
:1023F000CF78482F00D10561761C082EE4D34460C5
:10240000F0BD0000F0B5144C002801DAE36900E0EB
:102410006368420D120185B2C0F301579540C0F3C5
:102420000346032F05D0C2020AD50322B2409343CC
:1024300007E023F07062636823F07063636002E07A
:10244000AB4343F0706201B12A43002801DAE26134
:10245000F0BD6260F0BD00000000014002460020B7
:1024600092680A4200D001207047416170470161C3
:102470007047FEE730B52BA389B00BCB04AC00222C
:1024800084E80B002AA11BC98DE81B002CA1134670
:10249000D1E90001CDE907012B4900BFC2EB421091
:1024A00000EB821001EB80045FF0000084F8CE3274
:1024B00084F85431C0EB001505EB401504EB85059D
:1024C000401CA5F80E32C0B2A5F810320228F1D394
:1024D000521CD2B2022AE1D381F84B310B620020A8
:1024E00007AA0D18145C401CC0B285F84D4106289F
:1024F000F7D3002004AA145C0C54401CC0B20A2874
:10250000F9D301208872CB7208730220487300202F
:102510006A460C18135C401CC0B2A3731028F8D391
:1025200009B030BD52554E3357414953484500001C
:102530006162636465666768696A3132333435366F
:102540005550444154450000080100202DE9F05F3A
:102550005A4CDFF86CB1032594F8E40012274FF0D1
:10256000010A4FEA6B064FF00009012806D04FF030
:10257000110802282BD0032852D114E0042151481D
:10258000FFF76CFF012870D04FF480614E48FFF7D1
:1025900065FF012834D184F85E70C4F8DCB000BF58
:1025A000A4F8F25040E04FF480614748FFF756FF2F
:1025B000012874D004214348FFF750FF012824D19B
:1025C00084F85E80C4F8DCB0A4F8F25073E0042113
:1025D0003C48FFF743FF012817D04FF480613A4889
:1025E000FFF73CFF01280BD0B4F85200E8B394F891
:1025F000EC00012809D0022851D0032810D109E0AD
:1026000084F85E70C4F8DC60CAE784F85E80C4F8C1
:10261000DC60D9E784F85E70C4F8DC60A4F8F2509E
:1026200094F85E00112846D050462849C1F8A80108
:10263000C820A4F8F400B4F8F21044F6BC5090FBA3
:10264000F1F06422B0FBF2F02149486081B20A2027
:10265000B1FBF0F1A4F81011216AC4F8E090C4F8BD
:10266000E890A4F8F890152200E018E084F85020D3
:1026700044F62062A4F8542084F80D91A4F85C007C
:10268000216AA16500F076F80121880702F07AF846
:10269000BDE8F05F012204210E4802F04DB914207C
:1026A00084F85000A4F8529084F8AAA0BDE8F05F26
:1026B00009A0FDF723BE4846B7E700000801002047
:1026C00020A10700001401400008014000802142C1
:1026D00054000020002C01405761726E696E673A09
:1026E000204C6966746572206973206F6E2074686F
:1026F0006520746172676574656420706F736974B6
:10270000696F6E0D0A00000070B5184C0D4694F804
:102710005010152910D18A0711280ED0122813D075
:1027200014281CD0132807D111490020C1F8BC017E
:102730005FF0130084F8500070BDA9B21446104633
:1027400002F01EFA002105E000211446104602F0B6
:1027500017FAA9B22046BDE8704002F013BA002172
:10276000104602F00FFA1420E4E7000008010020F0
:10277000008021424FF47A7148430621B0FBF1F00A
:1027800070B50849B1FBF0F4642044430507C4F375
:102790004E01284602F0F6F9A1B22846BDE8704085
:1027A00002F0E8B940420F0008B50121082001F00D
:1027B000B5F84FF48040ADF8000004208DF8030018
:1027C00069460248FFF7CCFD08BD0000000C01403F
:1027D0002DE9F05FDFF808920125DFF808A2032653
:1027E0000227814C4FF000084FF4FA6B01281DD0EE
:1027F000022876D1C1027D48FFF730FE012871D052
:10280000A4F87A80C9F88481C9F88051FA2112208D
:1028100000F0CAF90121504601F0B4FF206A4FF4DC
:102820008059DFF8C881C4F880009EE04FF48051E1
:102830006F48FFF713FE01286ED0A4F86680C9F830
:102840008081C9F88451206AE066FA21122000F0E4
:10285000ABF90121504601F095FFDFF894814FF468
:1028600080591DE0216AE06E8142216AA1EB0000DF
:1028700000D2401EA4F8680000B258450CDB4FF4AB
:1028800080614046FFF7EAFD012802D0A4F8667097
:102890000CE0A4F8666009E094F8C700012822D093
:1028A00049464046FFF7DAFD0128DBD144F62060B7
:1028B00003F0E8F84FF4FA71142000F075F94FF4C2
:1028C00080614046FFF7CAFD012818D049464046BE
:1028D000FFF7C4FD012815D084F8B060B4F8660095
:1028E0005EE017E071E00A20A4F86600002150467F
:1028F00002F042F90021504602F040F9D6E784F890
:10290000B070EBE784F8B050E8E700BF34F8C00FD0
:10291000401C2080BDE8F09F4FF480513448FFF701
:102920009DFD0128F6D184F8B050F3E7216AD4F870
:1029300080008142216AA1EB000000D2401EA4F871
:102940007C0000B258450CDD4FF400612848FFF7C9
:1029500085FD012802D0A4F87A700CE0A4F87A6012
:1029600009E094F8C70001281DD049464046FFF70A
:1029700075FD0128DAD15021142000F015F94946DF
:102980004046FFF76BFD012819D04FF4006118484D
:10299000FFF764FD012815D084F8B160B4F87A001F
:1029A0000028B3D1B6E70A20A4F8660000215046FB
:1029B00002F0E2F80021504602F0E0F8DBE784F88C
:1029C000B150EBE784F8B170E8E74FF48051074865
:1029D000FFF744FD01289DD184F8B1509AE700002B
:1029E000000022420004004008010020000C0140C9
:1029F000001001402DE9F05F4FF000086449DFF856
:102A000094A101260227DFF89091644C4FF00A0B45
:102A10004546012810D002286CD1A4F87A50C1F89C
:102A20008451C1F880619621112000F0BDF8012188
:102A3000504601F0A7FE75E0A4F86650C1F8805139
:102A4000B046C1F884619621112000F0ADF8A4F8D9
:102A50006850206A4E46E06614E0216AE06E8142CA
:102A6000216AA1EB000000D2401EA4F8680000B269
:102A7000B0F5FA6F02DBA4F866700AE094F8C700BC
:102A800001281ED04FF480613046FFF7E7FC012893
:102A9000E3D15021142000F087F84FF480613046D4
:102AA000FFF7DCFC01281AD04FF480513046FFF7C5
:102AB000D5FC012816D0032084F8B000B4F86600D5
:102AC0004EE0A4F866B084F8C75000215546504641
:102AD00002F052F80021284602F050F8D9E784F8B5
:102AE000B070EBE784F8B080E8E700BF34F8C00FBF
:102AF000401C2080BDE8F09F294808F1010880456E
:102B00000CD34FF480512748FFF7A8FC012802D0CE
:102B1000A4F87A700DE0A4F87A600AE094F8C7008F
:102B2000012820D04FF400614846FFF797FC0128A8
:102B3000E2D15021142000F037F84FF480511948A9
:102B4000FFF78CFC01281CD04FF400614846FFF7CA
:102B500085FC012818D0032084F8B100B4F87A006D
:102B60000028C3D1C6E7A4F87AB084F8C750002182
:102B70005546504602F000F80021284601F0FEFFBD
:102B8000D7E784F8B160E9E784F8B170E6E70000C0
:102B90000000224200040040001001400801002013
:102BA00000441500000C014070B5104C0D46112872
:102BB00011D0122814D0132814D0142814D14FF493
:102BC000FA752946204601F0D7FF29462046BDE880
:102BD000704001F0D3BF204601F0CEFF0021F5E7A1
:102BE0000021EFE70021F6E770BD0000000400407F
:102BF00008B50121102000F091FE0720ADF800007B
:102C000010208DF8030003208DF802006946054866
:102C1000FFF7A6FB04480021C0F88411C0F880111A
:102C200008BD00000010014000002242FEE7000045
:102C30002DE9F84F564C574B204694F8B810564E95
:102C400090F8CD004FF014084FF0150B42F21075BC
:102C500041F288394FF00A0A01290DD094F8BA10D0
:102C600001295AD194F8BB10491C84F8BB101128D3
:102C700055D0122855D055E094F8B910491C84F865
:102C8000B910112802D0122802D002E0122700E069
:102C9000112700220221184601F04EFE84F828B0C8
:102CA000012241463846FEF7CFFE94F8B9000228CB
:102CB00004D840F2DC5002F0FFFE0BE0DFF8DC80CD
:102CC000112F0FD04FF4005739464046FFF7C6FB8F
:102CD0000028F9D0012200211420FEF7B5FE94F857
:102CE000B90047E002214046FFF7B8FB0028F9D0C1
:102CF000F0E702284AD32A46CDF800A05446002324
:102D00000421306805F050FC05F0DCF9024600941F
:102D100000230121306805F047FCBDE8F88F122739
:102D200000E0112700220221184601F005FE84F878
:102D30003CB0022241463846FEF786FE94F8BB00BE
:102D4000022804D840F2DC5002F0B6FE0BE0DFF8B7
:102D50005080112F11D04FF4807739464046FFF74D
:102D60007DFB0028F9D0022200211420FEF76CFE22
:102D700094F8BB000328BCD3CFE74FF40077394663
:102D80004046FFF76BFB0028F9D0ECE74A46B3E773
:102D900008010020002C014014000020000C01401C
:102DA000000801402DE9F05FFE4C0025FE4F94F82D
:102DB000A7004FF0020B4FF00108012865D194F8ED
:102DC000A9000028FAD194F8B800DFF8E0A30326A0
:102DD00018BBB4F89800218F88421ED99AF80110C8
:102DE000491CC9B28AF80110022916D30122002118
:102DF0001420FEF729FE84F8B88084F80C610A20BC
:102E0000A4F804018AF8015084F8B950206AC4F883
:102E100008010821386804F02DFC94F8BA0018BBAA
:102E2000B4F89C00B4F84C1088421DD99AF80010F0
:102E3000491CC9B28AF80010022915D302220021C8
:102E40001420FEF701FE84F8BA8084F80C618AF839
:102E5000005084F8BB50216AC4F80811A4F804811A
:102E60000821386804F006FCB4F80421D4F80811ED
:102E7000206AFEF7EDFA002894F80C0106D001282C
:102E800074D094F8CC10032971D0C6E038B194F80E
:102E9000BA00012803D094F8B800012865D194F84D
:102EA000CC204FF00001032A4FF014003BD0FEF776
:102EB000CBFD94F8CC004FF04109012802D0022844
:102EC00019D04CE094F8CD00112802D012280CD172
:102ED00001E0022101E04FF40051B548FFF7BEFACE
:102EE00010B1A4F82A9000E06685B4F8B600401C42
:102EF000A4F8B60033E094F8CD00112802D01228CF
:102F00000BD102E04FF4007101E04FF48071A94849
:102F1000FFF7A4FA00B3A4F83E90B4F8BC00401C3C
:102F2000A4F8BC001BE0FEF778FC94F8CD00112853
:102F300002D0122813D11BE002219D48FFF78EFA20
:102F400018B165854FF400711CE06685B4F8B600D1
:102F5000401CA4F8B600F5E7E687DEE7E58784F8CD
:102F6000A9B08AF801508AF8005056E017E03DE019
:102F70004FF400518E48FFF771FA48B1A4F82A5077
:102F80004FF480718B48FFF769FA0028E6D1E3E738
:102F90006685B4F8B600401CA4F8B600F0E794F8D3
:102FA000CC00032839D084F8A980012802D0022857
:102FB00002D002E0658500E0E58794F8CD10122983
:102FC0002BD1012805D141037948FFF747FA0128A1
:102FD00009D094F8CC0002281FD1C1017548FFF731
:102FE0003DFA012819D194F8CC0014E0022814D13C
:102FF0006585E587010384F8A9806D48FFF72EFAFF
:1030000010B10120FFF7E4FB4FF480716948FFF72E
:1030100025FA10B10220FFF7DBFB94F8AD00012880
:103020002CD194F85000152828D1A16D206A46F2C1
:10303000A812FEF70DFA01004FF0804004D094F87A
:103040000D1101290DD019E0002101F09BFBA4F81E
:1030500052B084F8AAB0B4F8BE00401CA4F8BE0078
:103060000CE0002101F08EFB206AB4F85810401AE1
:10307000A4F8540084F8AA80A4F8525094F8B80038
:10308000012803D094F8BA00012877D1B4F8980049
:10309000218F884204D994F83700401C84F8370007
:1030A000B4F89C00B4F84C10884204D994F84B0052
:1030B000401C84F84B0094F83700062602280AD3F7
:1030C000012200211420FEF7BFFC84F837506685EA
:1030D00094F8B9000DE094F84B0002280FD30222B7
:1030E00000211420FEF7B0FC84F84B50E68794F8DA
:1030F000BB00032803D20821386804F0BBFAD4F8D7
:103100000811206A49F64042FEF7A2F948B194F846
:103110000C01002832D094F8B800FF2501282FD0E8
:1031200055E094F8B8000525EE26012810D10122BB
:1031300000211420FEF788FC658594F8B900032867
:1031400004D20821386804F095FA01E084F8B860E8
:1031500094F8BA00012811D1022200211420FEF7B0
:1031600073FCE58794F8BB00032805D23868BDE8F6
:10317000F05F082104F07EBA84F8B860BDE8F09FE3
:1031800094F8CD00112805D102210948FFF766F90E
:10319000012815D094F8CD00122818D14FF4005111
:1031A000034809E008010020080000205400002026
:1031B000000C014000080140FFF750F9012806D13A
:1031C00084F8B85094F80C01401E84F80C0194F86F
:1031D000BA000128D2D194F8CD00112806D14FF4BD
:1031E00000710C48FFF73AF901280AD094F8CD0095
:1031F0001228C3D14FF480710648FFF72FF9012838
:10320000BCD184F8BA5094F80C01401E84F80C012B
:10321000B4E70000000801402DE9F04389B0012126
:10322000092000F07BFB01219548FFF7EBF84FF4F4
:103230000060ADF810001825924E8DF8135003244D
:103240008DF8124004A93046FFF78AF801210920C1
:1032500000F064FB01218C48FFF7D4F801218B4872
:10326000FFF7D0F83020ADF810008DF813508DF82E
:10327000124004A93046FFF773F80121102000F036
:103280004DFB0820ADF8100010208DF813008DF8CC
:10329000124004A97E48FFF763F84FF40440ADF8EC
:1032A000100004A93046FFF75BF80121052000F06B
:1032B00035FB0F20ADF810008DF813508DF812403B
:1032C00004A97448FFF74CF80121022000F00EFB1E
:1032D000714E4FF4C870ADF8180030686F49002483
:1032E000B0FBF1F0401EADF81400DFF8B481ADF88A
:1032F0001A40ADF8164005A9404601F047FC60278A
:103300006420ADF800700125ADF80600ADF802505C
:10331000ADF808406946404601F01CFB694640464E
:1033200001F05EFB0821404601F054FB08214046B5
:1033300001F096FB0121404601F02EFA01214046A2
:1033400001F010FA0021404601F01CFA0121084664
:1033500000F0CCFA4FF47A78ADF818803068514913
:103360004FF08049B0FBF1F0401EADF81400ADF80D
:103370001A40ADF8164005A9484601F007FCC820E0
:10338000ADF80070ADF80600ADF80250ADF8084099
:103390006946484601F0B2FB0821484601F0E0FBCF
:1033A0000121484601F0F8F90121484601F0DAF917
:1033B00001221021484601F0BFFA0021484601F0E1
:1033C000E1F91C208DF820008DF821508DF8235054
:1033D00008A800F071F80121082000F087FA3249AE
:1033E0003068B0FBF1F1B0FBF8F0401EADF81810FA
:1033F000ADF81400DFF8B480ADF81A40ADF816400F
:1034000005A9404601F0C2FBADF80070ADF80250CE
:10341000ADF8084026493068B0FBF1F0ADF8060081
:103420006946404601F096FA6946404601F0D8FAEE
:103430006946404601F01EFB6946404601F05EFBCE
:103440000821404601F0C6FA0821404601F008FB79
:103450000821404601F04CFB0821404601F080FB6A
:103460000121404601F098F90121404601F07AF926
:103470000021404601F086F909B0BDE8F083000064
:1034800000021800000C014000081A000002300081
:1034900000100140000801403800002000127A00AE
:1034A0000004004040420F0080841E00000C0040D9
:1034B00000093D007047000070B50F23C478017803
:1034C0000122F4B1144C2468457804F4E064C4F596
:1034D000E064240AC4F10406E3408478B5401C404B
:1034E0002C4301F1E021230181F80034007800F041
:1034F0001F018A404009800000F1E020C0F800214F
:1035000070BD01F01F0082404809800000F1E020FA
:10351000C0F8802170BD00000CED00E002490843B6
:1035200002490860704700000000FA050CED00E059
:103530001FB501211C2000F0F1F91020ADF80400A6
:1035400004248DF8074001A93248FEF709FF44F230
:103550000100ADF804008DF8074001A92E48FEF7E0
:10356000FFFEE001ADF804008DF8074001A92B48EB
:10357000FEF7F6FE0121084600F0D0F904210020F4
:10358000FEF7DAFE00210120FEF7D6FE0E21012013
:10359000FEF7D2FE09210220FEF7CEFE44F21120F2
:1035A000029000208DF80C000C208DF80D000124F5
:1035B0008DF80E4002A8FEF7A9FD17208DF8000037
:1035C00005208DF801008DF802408DF80340684613
:1035D000FFF772FF28208DF800006846FFF76CFFA8
:1035E0000A208DF800006846FFF766FF08208DF876
:1035F00000006846FFF760FF07208DF8000068466E
:10360000FFF75AFF06208DF800006846FFF754FFC9
:103610001FBD000000080140000C014000100140E7
:103620003EB50121092000F079F901212E48FEF76D
:10363000E9FE43F20A00ADF8000004248DF80340CF
:1036400069462A48FEF78CFE01210846FEF774FE03
:103650000D210120FEF770FE0121202000F05EF90F
:10366000ADF800408DF8034069462148FEF778FE2A
:1036700002210320FEF760FE0121102000F04EF928
:103680004FF41C40ADF800008DF80340694619481E
:10369000FEF766FE0121042000F040F94FF4E060DF
:1036A000ADF800008DF8034069461348FEF758FE58
:1036B0000A210020FEF740FE09210020FEF73CFE13
:1036C00008210020FEF738FE42F20670019000202B
:1036D0008DF8080008208DF8090001208DF80A00F7
:1036E00001A8FEF713FD3EBD00023000000C0140B2
:1036F00000140140001001400008014008B50121FC
:10370000082000F00BF90420ADF8000010208DF81F
:10371000030003208DF8020069460448FEF720FEEE
:1037200003490020C1F8880108BD0000000C0140D9
:10373000008021422DE9F84F0221A0F8B810B0F81E
:10374000BA600321032E03D3A0F8B810857800E0F7
:1037500000255949B0F8B82048F20203541C0978F2
:10376000B44205D8A0F8B840825C0AB118465BE0C4
:10377000B0F8B8201446521CB24203D8A0F8B820C2
:10378000045D00E00024B0F8B8201746521CB24295
:1037900003D8A0F8B820C75D00E0002700229246B9
:1037A000E94612E0B0F8B860B0F8BA80B446761CCA
:1037B000464506D8A0F8B86010F80CC009F802C059
:1037C00001E009F802A0521CD2B2A242EAD3B52D00
:1037D000CCD8B0F8BA602A1D9642C7D1E21C9542F7
:1037E000C4D1364A122F82F84C412DD00CDC032F65
:1037F0005ED004DC012F1BD0022F13D11BE0102F51
:103800001CD0112F0ED11CE048F204032A2F2FD018
:1038100004DC152F1BD0292F04D11BE02B2F3AD00D
:103820002C2F41D04FF4004000F09EFDBDE8F88FF2
:10383000FDF764FAFAE7FDF7DDFAF7E7FDF734FB89
:10384000F4E7FDF79BFBF1E7FDF7A2F9EEE7FDF7E3
:10385000A5FBEBE792F8AB00002887D192F8A70010
:10386000002883D19DF800002921FDF7E1F9DDE76B
:1038700092F8A7000028B0D192F8AB000028ACD194
:103880009DF801400B469DF802209DF8000021465E
:10389000FDF736F9CAE792F8AD0000289DD19DF8F2
:1038A0000000FDF795F9C1E74846FDF781F9BDE74E
:1038B000FDF732FABAE7000060000020080100209E
:1038C000034A516821F440410143516070470000B0
:1038D00000100240044A0029516901D0014300E070
:1038E000814351617047000000100240044A0029E2
:1038F000D16901D0014300E08143D16170470000EC
:1039000000100240044A0029116901D0014300E07F
:10391000814311617047000000100240044A0029F1
:10392000916901D0014300E081439161704700003B
:1039300000100240044A0029D16801D0014300E090
:103940008143D160704700000010024030B51F492C
:103950004A6812F00C031E4A03D0042B01D0082B36
:1039600021D002604A680F231A4C03EA1212A35CAA
:103970000268DA4042604B68072505EA1323E35CDE
:1039800022FA03F383604B6805EAD323E35CDA4051
:10399000C2604968032303EA9131231F595CB2FBDB
:1039A000F1F1016130BD4A684B6802F470124FF0CA
:1039B000020413F4803F04EB924202D04B689B0355
:1039C00001D5054B00E0024B5A43CAE70010024004
:1039D00000127A007000002000093D002DE9F04738
:1039E000154F0446DDF8209038781D461646884667
:1039F00008B901F099FB7869A04219D9EFF3118059
:103A0000202181F311880C4A04EB440102EBC1012F
:103A100034B10022C1F860800A67C1E91965CA663D
:103A2000C0B280F31188C1F874900020BDE8F0871F
:103A30004FF0FF30FAE70000003600202DE9F04794
:103A4000154F0446DDF8209038781D461646884606
:103A500008B901F069FB3869A04219D9EFF3118068
:103A6000202181F311880C4A04EB440102EBC101CF
:103A700034B1C1F81880C1E9076500228A624A6240
:103A8000C0B280F31188C1F82C900020BDE8F08707
:103A90004FF0FF30FAE70000003600202DE9F04734
:103AA0001B4D0746164628780C4608B901F03CFB2A
:103AB00007EB470005EBC007A046D7E91B9500249C
:103AC00060374D4511D9B868441BB44200D3344621
:103AD0007868224641194046FCF711FDB868361B4C
:103AE0002544A044A84200D10025A9EB0500B0421E
:103AF00000D206463EB17868324641194046FCF78E
:103B0000FEFC3444354404B13D612046BDE8F087F5
:103B1000003600202DE9F04188461A4900EB4000AC
:103B200001EBC0041746A16A656A1834A94222D87D
:103B3000A068461B701EB84207D3606841462844FF
:103B4000FCF7DDFCE819E06012E00844B84216D347
:103B5000BE42F2D86068324628444146FCF7CFFCAA
:103B6000BA1B154608EB06016068FCF7C8FCE56067
:103B70000120BDE8F081481B401EB842DDD2002084
:103B8000F7E7000000360020084810B50168054B33
:103B9000054A084600F058F8BDE810404FF00050C4
:103BA00000F0A4BABD530008B48800083800002013
:103BB00005E000BF41F0800200F8012BC9097F2910
:103BC000F8D800F8011B704770B5EFF3118520207D
:103BD00080F311881B48A0F12C040146626804E0C0
:103BE00042F0800301F8013BD2097F2AF8D801F89E
:103BF000012BA26805E000BF42F0800301F8013B01
:103C0000D2097F2AF8D801F8012B226905E000BF0C
:103C100042F0800301F8013BD2097F2AF8D801F86D
:103C2000012B022201F8012B182201F019FBE8B246
:103C300080F31188606A002802D0BDE87040004718
:103C400070BD0000E43E00202DE9F843984615467B
:103C50000E46074600244FF480630D4A0DA1012053
:103C60000094FFF7EBFE08230C4A0AA10120009400
:103C7000FFF7B4FE0A484FF08051016109494968D5
:103C80004760C0E90261C0E908580470BDE8F883E4
:103C9000B83A002053797356696577000001002017
:103CA000B83E0020001000E010B5EFF31184202092
:103CB00080F3118804481122014601F0D1FAE0B2E4
:103CC00080F3118810BD0000E43E002010B50146CD
:103CD000EFF31184202080F311880C48A0F12C020E
:103CE0001269891A8A08014605E000BF42F0800384
:103CF00001F8013BD2097F2AF8D801F8012B0822EC
:103D000001F0AEFAE0B280F3118810BDE43E00206D
:103D100010B50146EFF31184202080F311880C4880
:103D2000A0F12C021269891A8A08014605E000BF39
:103D300042F0800301F8013BD2097F2AF8D801F84C
:103D4000012B042201F08CFAE0B280F3118810BD3F
:103D5000E43E002010B50146EFF31184202080F3EB
:103D600011880C48A0F12C021269891A8A080146B0
:103D700005E000BF42F0800301F8013BD2097F2A31
:103D8000F8D801F8012B062201F06AFAE0B280F3BC
:103D9000118810BDE43E00200A4810B5006A48B101
:103DA000006838B180470A460146BDE810400D2042
:103DB00000F02AB804484168BDE810400C2000F02B
:103DC00005B80000B83E0020001000E070B50246C3
:103DD000EFF31184202080F311880A48034604E0A1
:103DE00041F0800500F8015BC9097F29F8D800F887
:103DF000011B0146184601F033FAE0B280F3118846
:103E000070BD0000E43E002070B50546EFF311845C
:103E1000202080F311880F48034604E041F080061B
:103E200000F8016BC9097F29F8D800F8011B04E0EC
:103E300042F0800100F8011BD2097F2AF8D800F86F
:103E4000012B01462A46184601F00AFAE0B280F337
:103E5000118870BDE43E00202DE9F0410646EFF3E5
:103E60001184202080F31188154D284605E000BFFD
:103E700041F0800700F8017BC9097F29F8D800F8D4
:103E8000011B04E042F0800100F8011BD2097F2AE7
:103E9000F8D800F8012B04E043F0800100F8011B82
:103EA000DB097F2BF8D800F8013B01463246284653
:103EB00001F0D6F9E0B280F31188BDE8F08100008E
:103EC000E43E002010B50246EFF31184202080F379
:103ED00011880448014601F0C3F9E0B280F311886B
:103EE00010BD0000E43E002070B501461A4842684B
:103EF000002A30D0002003E01269002A2BD0401C99
:103F00008842F9D3EFF31185202080F31188134CF8
:103F1000204604E041F0800300F8013BC9097F29F5
:103F2000F8D800F8011B916805E000BF41F080035C
:103F300000F8013BC9097F29F8D800F8011B116876
:103F4000802201F025F901461622204601F088F969
:103F5000E8B280F3118870BDF8000020E43E002034
:103F6000054810B54468002C04D0E06800B18047D3
:103F70002469F8E710BD0000F800002010B5EFF349
:103F80001184202080F311880B4A0A4801461278D8
:103F900005E000BF42F0800301F8013BD2097F2A0F
:103FA000F8D801F8012B1B2201F05AF9E0B280F396
:103FB000118810BDE43E0020F800002010B5EFF39A
:103FC0001184202383F31188001D01F049F9E0B228
:103FD00080F31188002010BD70B5EFF3118520210A
:103FE00081F31188074C01468022204601F0D0F869
:103FF00001460E22204601F033F9E8B280F3118821
:1040000070BD0000E43E00202DE9F0410546EFF3CD
:104010001186202080F311882D4C2968A4F12C07EB
:1040200020463A69891A890805E000BF41F08002FC
:1040300000F8012BC9097F29F8D800F8011BA968ED
:1040400005E000BF41F0800200F8012BC9097F297B
:10405000F8D800F8011B2022696801F099F80146A0
:104060000922204601F0FCF828683A692146801AA6
:10407000800804E040F0800201F8012BC0097F288D
:10408000F8D801F8010BE86805E000BF40F08002B5
:1040900001F8012BC0097F28F8D801F8010B286925
:1040A00005E000BF40F0800201F8012BC0097F2825
:1040B000F8D801F8010B002001F8010B1522204669
:1040C00001F0CEF8F0B280F31188BDE8F081000075
:1040D000E43E00200448006A002803D0406800281D
:1040E00000D0004770470000B83E00200149086139
:1040F00070470000B83E002002490969401A800854
:1041000070470000B83E002070B52A4C2078002887
:104110004FD101202070EFF31185202686F31188FE
:104120000A222549FFF7F6FCE8B280F311880A203D
:10413000FFF7C8FEEFF3118586F3118804F12C0018
:104140000146626805E000BF42F0800301F8013BD0
:10415000D2097F2AF8D801F8012BA26805E000BF38
:1041600042F0800301F8013BD2097F2AF8D801F818
:10417000012B226905E000BF42F0800301F8013BFA
:10418000D2097F2AF8D801F8012B022201F8012B6D
:10419000182201F065F8E8B280F31188606A00B176
:1041A0008047FFF7F9FDFFF795FFBDE87040FFF787
:1041B000E5BE70BDB83E0020BC88000870B5EFF3C6
:1041C0001184202080F311880748A0F12C0529785C
:1041D00029B10B22014601F043F800202870E0B21B
:1041E00080F3118870BD0000E43E002070B5EFF34D
:1041F0001185202181F311880A4C01468022204636
:1042000000F0C6FF012100F8011B002100F8011B8E
:1042100001461A22204601F023F8E8B280F3118803
:1042200070BD0000E43E00202DE9F8430C4617461F
:1042300080461E46052213A12046089DFCF70FF973
:1042400000281CD0114A1068082804D3BDE8F843A0
:104250000F48FFF7CBBF00EB80010E4B401C43F82B
:10426000218003EB81013346C1E90147C1E90365C0
:1042700010603A4621464046009500F060F8BDE8DF
:10428000F883000049444C4500000000F400002081
:10429000D88800086035002070B51A4C2268002AC2
:1042A0002FD00021184B06E001EB810553F8255073
:1042B000854202D0491C9142F6D3501E814204D15E
:1042C00001EB810003EB800015E0914219D202EB73
:1042D000820003EB800001EB810150F8142D43F8BC
:1042E000212003EB810142684A6082688A60C268CB
:1042F000CA6002690A611421FCF7A2F92068401E15
:10430000206070BDF400002060350020F0B589B059
:1043100004461E46174601A80E9DFFF749FC394684
:10432000FFF746FC3146FFF743FC2946FFF740FC08
:10433000014622466846FFF741FE09B0F0BD2DE96F
:10434000F04186B00D4604461F46164614216846C5
:10435000DDF83080FCF774F98DE8F0016846FFF76E
:1043600053FE06B0BDE8F08170B50346B0B0002042
:10437000AB208DF800000E4656218DF80110052166
:1043800002208DF8021001228DF804008DF8032020
:104390008DF8056007228DF806301A0A08208DF87E
:1043A0000720ADF8B8006C460325ADF8BA00042527
:1043B0000621A01CFDF740F8BDF8B8106054BDF808
:1043C000B800401CADF8B800ADF8BA00684600F07F
:1043D00003F830B070BD0000044991F84B1100297A
:1043E00003D1B0F8BA1000F085BC70470801002076
:1043F0000CB50021264801910091026842F48032F8
:1044000002604FF4A063026802F400320092019A45
:10441000521C0192009A12B9019A9A42F3D1026891
:10442000920333D5012100911A490A6842F0100223
:104430000A600A6822F003020A600A6842F0020277
:104440000A604168416041684160416841F48061AF
:104450004160416821F47C114160416841F4E811F8
:104460004160016841F08071016001688901FCD5FB
:10447000416821F003014160416841F0020141605F
:104480004168C1F381010229FAD10CBD00910CBD34
:1044900000100240002002404FF0E021042808698B
:1044A00003D020F004000861704740F00400FAE7F0
:1044B00010B503F0F9FD012805D003F0FFF902481B
:1044C000016A491C016210BD080100200F4810B5A7
:1044D000016841F00101016041680D4A11404160ED
:1044E00001680C4A11400160016821F480210160DB
:1044F000416821F4FE0141604FF41F018160FFF724
:1045000077FF05494FF00060086010BD00100240C1
:104510000000FFF8FFFFF6FE08ED00E070B54D4D1E
:104520000221284600F0FCF94B4CD0B3022128466A
:1045300000F025F90221284600F01EF9D4F8D80031
:10454000401CC4F8D800B4F8D010884205D2B4F8A2
:10455000F00094F8D410084409E0B4F8D2201144D3
:10456000814206D9B4F8F00094F8D510401AA4F8A6
:10457000F000B4F9F0000A2803DA0A20A4F8F000E9
:1045800005E04FF46171884201DDA4F8F01094F861
:10459000CC20B4F9F01094F8CD00032A02D0FDF736
:1045A00053FA01E0FDF739F90421284600F0B8F983
:1045B00000284DD00421284600F0DEF804212846CA
:1045C00000F0DDF8B4F8F800401C80B2A4F8F80060
:1045D000B4F8F21001EBC10202EB0111B0EB810F54
:1045E0000FD234F85C0FB4F8B4100844208080B2C5
:1045F000FEF7C0F8B4F90010BDE8704017A0FBF753
:104600007DBED4F8E0104AF6C8724FF47A70914239
:1046100016D900BFB4F85C10B4F81021891A09B299
:10462000A4F85C10814201DAA4F85C0034F95C1F44
:1046300012A0FBF763FE2088BDE87040FEF79AB831
:1046400094F8EC20022A03D144F620629142E1D88A
:1046500070BD0000002C014008010020506861730B
:104660006520313A2063757272656E742072706DC8
:10467000203D202564200D0A000000005068617371
:104680006520323A2063757272656E742072706DA7
:10469000203D202564200D0A0000000010B51021E7
:1046A0008C06204600F03CF9002818D01021204646
:1046B00000F065F81021204600F05EF80848D0F8B8
:1046C000E010491CC0F8E01090F8E420022A06D15E
:1046D00046F6D032914202D3012180F80D1110BD6F
:1046E0000801002010B5124C0121204600F018F9F5
:1046F00000281BD00121204600F041F8012120466E
:1047000000F03AF80021204600F03CF8094890F803
:10471000C81001290AD1002100F8C71F4170FEF717
:1047200043F8BDE8104004A0FBF7E8BD10BD000051
:1047300000100040080100204572726F723A207428
:104740006865206C6F636B6572206368616E6E656F
:104750006C206973207265636F7665726564210DE4
:104760000A0000000029018802D041F0800101E028
:1047700021F0800101807047C94301827047C9431D
:10478000018270470029018802D041F0010101E057
:1047900021F0010101807047002930F8441F02D048
:1047A00041F4004101E0C1F30E01018070470000B7
:1047B0004B4910B5884202D10121C41486E0B0F102
:1047C000804F09D0474988420DD101210220FFF7CF
:1047D00099F80021022064E001210846FFF792F8D1
:1047E000002101205DE04049884206D101210420DA
:1047F000FFF788F80021042053E03C49884206D1A5
:1048000001210820FFF77EF80021082049E03849FF
:10481000884206D101211020FFF774F800211020F2
:104820003FE03449884206D101212020FFF76AF891
:104830000021202035E03049884202D10121441472
:1048400044E02E49884202D10121CC043EE02C49AB
:10485000884202D101210C0538E02A49884202D160
:1048600001214C0532E02849884206D1012140202F
:10487000FFF748F80021402013E02449884206D180
:1048800001218020FFF73EF80021802009E0204927
:1048900088420AD1841501212046FFF733F8002110
:1048A0002046BDE81040FFF72DB81A49884202D1D2
:1048B00001210C040AE01849884202D101214C046C
:1048C00004E0164988420AD101218C042046FFF7F2
:1048D00031F82046BDE810400021FFF72BB810BD8D
:1048E000002C01400004004000080040000C004083
:1048F000001000400014004000340140004C014012
:10490000005001400054014000180040001C0040CD
:1049100000200040004001400044014000480140A8
:1049200002460020138A92890B4202EA010202D059
:10493000002A00D001207047002A828901D00A4352
:1049400000E08A4382817047018921F007010181DB
:104950007047000030B5028C22F001020284028C04
:104960008388048B22F0020224F073050C882C4308
:104970000D8915434A882A43114DA8420BD0114D89
:10498000A84208D0104DA84205D0104DA84202D030
:104990000F4DA8420DD122F008054A8923F4407337
:1049A0002A4322F004058A882A438D891D43CB8936
:1049B0002B4383800483C9888186028430BD000034
:1049C000002C0140003401400040014000440140FF
:1049D00000480140028B22F008020A43028370471C
:1049E00070B5028C22F010020284028C8488038B42
:1049F0000D8823F4E6464FF6FF7303EA0525354399
:104A00000E8922F0200203EA061616434A8803EABA
:104A100002123243104EB04202D0104EB04215D1B5
:104A200022F080064A8924F4406403EA02123243E9
:104A300022F040068A8803EA021232438E8903EA92
:104A400086062643CC8903EA8404344384800583A4
:104A5000C9880187028470BD002C014000340140E8
:104A6000028B4FF6FF7322F4006203EA0121114327
:104A70000183704770B5028C22F480720284028C2C
:104A80008488838B0D8823F073031D4322F4007305
:104A90000E894FF6FF7202EA06261E434B8802EA91
:104AA00003233343104EB04202D0104EB04215D112
:104AB00023F400664B8924F4405402EA0323334371
:104AC00023F480668B8802EA032333438E8902EA4B
:104AD00006162643CC8902EA041434438480858375
:104AE000C9888187038470BD002C014000340140D7
:104AF000828B22F008020A438283704770B5028CD1
:104B000022F480520284048C8288838B0D8823F4E3
:104B1000E6464FF6FF7303EA0525354324F40056B5
:104B20000C8903EA043434434E8803EA06362643EC
:104B3000094CA04202D0094CA04205D122F4804485
:104B40008A8903EA8212224382808583C988A0F879
:104B50004010068470BD0000002C0140003401406C
:104B6000828B4FF6FF7322F4006203EA01211143A6
:104B700081837047818570478186704701877047C0
:104B800081877047A0F840107047000030B5028858
:104B90001B4B1C4C98420DD0A0420BD0B0F1804F63
:104BA00008D0194DA84205D0184DA84202D0184D82
:104BB000A84203D122F070054A882A43154DA84225
:104BC00006D0154DA84203D022F44075CA882A4366
:104BD00002808A8882850A88028598420AD0A0428B
:104BE00008D00E4A904205D00D4A904202D00D4A9C
:104BF000904201D1097A01860121818230BD0000F5
:104C0000002C014000340140000400400008004036
:104C1000000C004000100040001400400040014023
:104C200000440140004801400029018802D041F0C1
:104C3000020101E021F002010180704730B501213D
:104C400089B0C802FEF76AFE274D2846FFF7B0FD7F
:104C500042F21070ADF81400244825490024006881
:104C6000ADF81640B0FBF1F1491EADF81010ADF8EB
:104C700012408DF8184004A92846FFF787FF6020EE
:104C8000ADF800004FF4FA60ADF80600ADF8024050
:104C9000ADF8084069462846FFF75CFE4FF4FA502D
:104CA000ADF8060069462846FFF79AFE0022022169
:104CB0002846FFF741FE002204212846FFF73CFE6C
:104CC0001B208DF81C0001218DF81D108DF81E4051
:104CD0008DF81F1007A8FEF7EFFB01212846FFF70C
:104CE00051FD09B030BD0000002C0140380000200B
:104CF00040420F002DE9F0410E4607460024094DC1
:104D00000AE0395D284600F033F94021284600F0DA
:104D10009BF80028F9D0641CB442F2D3F0B2BDE88D
:104D2000F08100000038014010B501218CB0084628
:104D3000FEF7D0FD0F4C2046FCF74CFC0E480090CF
:104D40000E480021CDE90101B520CDE90301802005
:104D5000CDE905018001CDE9081007910A91694666
:104D60002046FCF7C5FC01212046FCF727FC0CB0CF
:104D700010BD000058000240043801401E0200200F
:104D800038B5234C40F22441204600F064F8002856
:104D90003CD000BF00BF00BF20881D48001D008818
:104DA0001C4D00212846FCF709FC2846FCF784FC32
:104DB000C0F1B500184CC2B2552084F8492184F8DE
:104DC000480104F58B7101F51E7004F5A474FBF71E
:104DD00096FB6078A4F80003B5212846FCF7A5FCF3
:104DE00001212846FCF7EAFB0C486946006803F0FD
:104DF00077F801280AD10098002807D008494FF019
:104E000080500860BFF34F8FBFF36F8F38BD000035
:104E10000038014058000240080100200C0000202A
:104E200004ED00E00029818902D041F4005101E045
:104E300021F4005181817047002A828A01D00A43FF
:104E400000E08A43828270470246002012880A42AC
:104E500000D00120704730B501F01F020124002569
:104E6000C1F3421304FA02F2012B0FD0022B0FD030
:104E7000838A4FEA11210088134204FA01F400EA00
:104E8000040001D000B10125284630BD8389F0E738
:104E9000038AEEE710B5C1F3421301F01F040121AC
:104EA000A140012B07D0022B07D01430002A026842
:104EB00005D00A4304E00C30F8E71030F6E78A43E7
:104EC000026010BD30B50446008A85B00D464CF630
:104ED000FF710840E98801432182A1894EF6F31051
:104EE0000140A8882A8910436A890A431043A08197
:104EF000A08A4FF6FF410840A9890143A182684674
:104F0000FEF724FD1948844201D1039800E002987D
:104F1000A189090400EBC00101EB0010296801D54B
:104F2000490000E08900B0FBF1F06422B0FBF2F12F
:104F300009010B096FF018056B4300EB8300A3898F
:104F40001D044FF0320306D503EBC000B0FBF2F0B6
:104F500000F0070005E003EB0010B0FBF2F000F0FA
:104F60000F000843208105B030BD0000003801402B
:104F7000C1F30801818070471FB50C4A00210C481D
:104F8000FCF702FA094841680091827A00F10B01AE
:104F90008DF80C2001A8FBF7B2FA4FF47A720023C7
:104FA0006946044800F016FB1FBD0000000A0020FF
:104FB00000640040BC050020FEE700002DE9F04140
:104FC000194D95F8480155281CD12846174E00F573
:104FD0000E7490F89303307094F81002C01EC7B29C
:104FE00004F5AC703946FCF727FAE119002791F86F
:104FF000581104F5AB74814206D12046FEF79AFBA6
:1050000085F84871BDE8F081317848F20600FFF775
:10501000ABF932210648FBF7F1FA2046B521FBF740
:10502000EDFA85F84971EDE70801002060000020E5
:105030001E02002030B587B001214FF40570FEF745
:105040006DFC4FF40040FEF73BFCE020ADF814008F
:1050500000248DF8174005A93048FDF781F930206C
:10506000ADF814008DF8174005A92D48FDF778F923
:105070002C4D2846FBF774FC01208DF804004FF4FA
:105080002020CDE9020405208DF8100000948DF851
:10509000054069462846FBF79DFC032301220521B4
:1050A0002846FBF7BBFC0323022206212846FBF718
:1050B000B5FC03231A4607212846FBF7AFFC032360
:1050C00004220E212846FBF7A9FC032305220F2109
:1050D0002846FBF7A3FC01212846FBF72DFC2846B8
:1050E000FBF7D6FC2C462046FBF76DFC0028FAD1D6
:1050F0002046FBF7D2FC2046FBF75EFC0028FAD1E5
:1051000001212046FBF74EFCFCF702FA0121204664
:10511000FBF71CFCFBF7CCFB07B030BD00080140DF
:10512000001001400024014010B5124C0320206102
:10513000606111A0A06104F1A800E0614FF48060FB
:1051400020620020A06260620BA12166E06204F58B
:105150009561616610212067C4E91A10606709A192
:10516000E01DFBF7A8F908A12046FBF7A4F92020D1
:10517000A07110BD003600205465726D696E616CBF
:105180000000000052545400534547474552000068
:1051900010B5002300E05B1CCC5C002CFBD19342DB
:1051A00000D91346FF2B02D200F8013B07E0FF2293
:1051B00000F8012B1A0A00F8013B00F8012B00222D
:1051C00005E000BF11F8014B00F8014B521C9A4258
:1051D000F8D310BD08B5012269461046FEF75EFC03
:1051E00000281ADD9DF80000052823D008DC0128DE
:1051F00014D0022815D0032816D0042806D116E0B2
:1052000006281AD007281BD080281CD0802804D359
:10521000012269461046FEF741FC08BDFEF774FF07
:1052200008BDFEF7CBFF08BDFEF7B6FD08BDFEF7D3
:1052300051FF08BDFEF7C8FC08BDFEF79FFE08BD84
:10524000FEF78EFE08BD012269461046FEF726FCD9
:105250000028F7DD9DF80000FEF746FE08BD0000BF
:105260002DE9F041304D0446174628780E464FF0A0
:105270000108012807D090B3022804D100F05AF8A1
:10528000287801283FD1202F04D2E96908FA07F0D5
:10529000014238D1FAB2182F02D2611E0A7019E009
:1052A000301B7F2808D9C309214604F8013D40F08E
:1052B000800001F8020D01E0611E08707F2F07D900
:1052C000F8094A1E107047F0800001F8020D01E055
:1052D00001F8012D15484768E868381A05E012E022
:1052E00040F0800206F8012BC0097F28F8D806F8A4
:1052F000010B721A0120FEF70DFC08B1EF6002E00D
:105300002878401C28700A4850F8841F4068814261
:1053100008D0A878002805D185F80280FFF75AFF49
:105320000020A870BDE8F081B83E0020001000E029
:10533000003600203EB50120164C8DF800006A466C
:10534000501C616905E000BF41F0800300F8013B9B
:10535000C9097F29F8D800F8011B0F494D68E16899
:10536000691A04E041F0800300F8013BC9097F2974
:10537000F8D800F8011B821A69460120FEF7CAFB23
:1053800020B1E5602178491E21703EBD6169491C4C
:1053900061613EBDB83E0020001000E070B502F033
:1053A00097FE4FF47A730146A1FB030500221446D1
:1053B00002FB035201FB042170BD000010B504A0E4
:1053C000FEF70AFEBDE8104010A0FEF705BE000083
:1053D0004E3D4672656552544F532053656E736F50
:1053E00072426F617264204170706C6963617469AC
:1053F0006F6E2C443D436F727465782D4D332C4F86
:105400003D4672656552544F5300000049233135C3
:105410003D5379735469636B00000000F8B50024B4
:105420000A4D0B4E0EE000BF04EB840705EB87002E
:105430000169001D009190E80E0055F82700FEF765
:105440007EFF641C30688442EED3F8BD60350020D6
:10545000F4000020704770470025154FDFF8548096
:10546000DFF85490154C6E1E2069D0B100233246EF
:105470001946656002F0A8FA60600128F4D1FCF7D3
:1054800021FF20680121401C20603846FBF754FAB8
:1054900001214046FCF792F801214846FFF772F9D6
:1054A000E2E760680028DFD10A2001F07BFEDBE73D
:1054B00000240140080002400008004000000020D5
:1054C00002685AB111680160C188491C89B2C18063
:1054D00003898B4200D2018110467047002070473B
:1054E0002DE9F05F8346088B0E46C0F309000025C6
:1054F000C0F1060191461F46002909DC14E000BFF7
:10550000321819F80510401C6D1C917680B2ADB2AE
:10551000062801D2BD42F3D3BD4205D3B0694FEA9C
:10552000B02000EB83504FE0308B7468C0F309016A
:10553000881F1C23B0FBF3F203FB12086FF0020A72
:105540000CB101200BE0584600F059FA70602FE0D2
:1055500004464FF0000830E0401CC0B214462268F8
:10556000002AF9D13944891FB1FBF3F1491CC9B2B2
:10557000814222D9B8F1000F1FD1584600F03FFAFE
:105580002060B8B1044618E0404607E0221819F838
:105590000510401C6D1C117180B2ADB21C2801D2E7
:1055A000BD42F3D3BD4208D2584600F028FA20602D
:1055B0000028CDD15046BDE8F09FBD42E4D3B0698C
:1055C0004FEAB02000EB87504FEAB050B0610120A5
:1055D000F1E700002DE9F04F064695B091469A4656
:1055E0000D46086800F08CFA0490022839D028880B
:1055F000C0F306273078B8426FD12C68C4F304603A
:10560000129004F07F001190204600F079FA0228F1
:1056100029D0C4F307400499059040EA014111984C
:1056200041EA804040EA4768297BE81C0F5C06F1AC
:105630000C00F909019037D00020CDE9060011983F
:105640000090DDE90432746806A93046A0470028BE
:1056500043D0B069414668B100F074FA04001BD130
:105660000FE00027C9E7C4F30F206106D3D100F093
:105670000300D0E7019800F0CAF904002DD0B4610E
:105680000AE034464146019800F0C1F9002824D0D0
:10569000A1690160A0610446DDE906234FF6FF70B1
:1056A00000F098F9E08205E04146B06900F04AFA5E
:1056B000040012D0D4E9020250EA02010ED0002107
:1056C000B9EB000C6AEB02038D4A0020B2EB0C022E
:1056D000984105D24FF0010C04E0A5E00121EFE76D
:1056E0004FF0000CA269FB09C2F3842807F01F0BDE
:1056F000BBEB080000D52030012801DD012000E0CF
:10570000002041EA0C010340194312D06BF38E22B2
:1057100022F40040A0612146304601F0BFF9F809AB
:1057200009D1A0694FF0006101EBF0304FEA704001
:1057300079E0F80924D0780622D5C4E9029A20211C
:1057400006A8FAF77DFF281DCDF81890CDE907A02F
:10575000287B06A9401EC0B2ADF82C000598ADF814
:105760002E0004988DF830008DF831B012988DF825
:10577000320011988DF83300B26830469047BAE095
:10578000A169C7F34012C1F3C03090424CD1C1F3BC
:105790008422934548D1F80919D0780617D4287B7C
:1057A000032841D9C4E9029A287BAA1DC01EC3B2AE
:1057B00021460198FFF794FE00281EDBA888A082EE
:1057C000287BC01EC2B26069000CA91D25E007F04D
:1057D000400050EAD710287BA0F10100C3B205D0E9
:1057E0000020C1F30902062A28D32CE02A1D2146F5
:1057F0000198FFF775FE002809DA2146304601F0CE
:105800004DF915B02046BDE8F04F00F045BC287BAF
:10581000291D401EC2B26069000C00F0BFF8E08292
:10582000A06980F40040A06115B0BDE8F08F291890
:10583000A718401C0979B976C0B2521C062A20D29A
:105840009842F4D31DE06168D9B1062701E06146B2
:105850001C37D1F800C0BCF1000FF8D111B1D21B38
:105860001C2A0AD3FAF7F0FD2F1801EB020C401C9A
:105870003F798CF80470C0B2521C1C2A01D29842A5
:10588000F2D304F11A01CDF82090CDE909A16168A5
:105890000B91984201D3002001E02844001D0C9098
:1058A000208B291DC0F309001844ADF83400059879
:1058B000ADF8360004988DF838008DF839B012989C
:1058C0008DF83A0011988DF83B00002060602A7B2B
:1058D0006069521E000C00F061F8E082A08A6169E4
:1058E000B0EB114F03D1B26808A93046904708A920
:1058F000304600F036F8204600F0CEFB94E700007A
:1059000080841E002DE9F0471F46DDE908890E4618
:1059100004004FEA521514D02421FAF791FE00201A
:105920002070A061C4E90709C4E90187B5F5803F8B
:1059300001D34FF6FF7504F10C01ABB200220C4607
:1059400007E0FAF781FD00BF06EB421525602C4603
:10595000521C9A42F8D320608B80C8800881BDE831
:10596000F08770B50C4600F10C0604E030460D6877
:1059700000F0FCF8E560E1680029F7D10020A060A4
:105980002061A08270BD10B530B1027822B919B182
:105990007F2901D8017010BDFAF756FD70B5154684
:1059A0000C4603E014F8011B00F003F86D1EF9D259
:1059B00070BD10B580EA0120002141F221034FF6AD
:1059C000FF72040402EA400000D55840491C08292F
:1059D000F7DB10BD2DE9F04115461E4607460024B1
:1059E000224628463146FAF776FCC1B23846FFF720
:1059F000E0FF08340746402CF2DBBDE8F08110B52B
:105A0000FFF75EFD002801D00021016010BD30B518
:105A100089B00C46054620216846FAF711FE284653
:105A20000494FFF74DFD040006D020226946FAF7E2
:105A3000ABFD204609B030BD0020FBE710B50420C7
:105A4000FEF72AFD0C480D4A01680D48B1FBF2F340
:105A5000B1FBF2F14FF47A7251430370012242809C
:105A60004FF0E020026942F00202026141610169E7
:105A700041F00101016110BD3800002040420F00DB
:105A80005C00002070B54FF0E024002265690949F0
:105A9000A36909784843A1699942FCD002D2A3EBDB
:105AA000010302E0A5EB010633441A440B4682428F
:105AB000F1D370BD5C00002070B5054600244FF4A2
:105AC0007A7603E03046FFF7DDFF641CAC42F9D381
:105AD00070BD000008B5094C4FF0FF35A06840B11B
